:020000040800F2
:10000000D8600020410200088D660008554F0008A6
:100010008966000899140008619E0008000000002D
:100020000000000000000000000000006D740008E7
:100030003916000800000000C16C00084575000872
:100040005B0200085B0200085B0200084D6F0008BD
:100050005B0200085B0200085B0200085B0200080C
:100060005B0200085B0200085B02000855150008EF
:100070005B0200085B0200085B0200085B020008EC
:100080005B0200085B0200088D0F00085B0200089D
:10009000FD9900085B0200085B0200085B02000893
:1000A0005B020008E17600085B0200085B020008C2
:1000B0005B0200085B0200085B0200085B020008AC
:1000C0005B0200085B0200085B0200085B0200089C
:1000D0005B0200085B0200085B0200085B0200088C
:1000E0005B0200085B0200085B0200085B0200087C
:1000F000E5510008ED510008CD480008815E000878
:100100005B0200085B0200085B0200085B0200085B
:100110005B0200085B0200085B0200085B0200084B
:100120005B0200085B020008651500085B0200081E
:100130005B0200085B0200085B02000800F002F8A6
:1001400000F06FF80AA090E8000C82448344AAF102
:100150000107DA4501D100F064F8AFF2090EBAE800
:100160000F0013F0010F18BFFB1A43F001031847EB
:10017000DCE000000CE100000A444FF0000C10F835
:10018000013B13F0070408BF10F8014B1D1108BF15
:1001900010F8015B641E05D010F8016B641E01F8B5
:1001A000016BF9D113F0080F1EBF10F8014BAD1C05
:1001B0000C1B09D16D1E58BF01F801CBFAD505E023
:1001C00014F8016B01F8016B6D1EF9D59142D6D37D
:1001D000704700000023002400250026103A28BFA5
:1001E00078C1FBD8520728BF30C148BF0B607047A9
:1001F00066290DF09086692900F0D680642900F008
:10020000D380002070471FB50DF078FE00F048FD48
:100210000400002000210DF05BFEE0601FBD10B562
:1002200010BD00F03DFE1146FFF7EDFF0DF0B2F8F6
:1002300000F05BFE03B4FFF7F2FF03BC00F09EFE8C
:100240000948804709480047FEE7FEE7FEE7FEE76A
:10025000FEE7FEE7FEE7FEE7FEE7FEE704480549A6
:10026000054A064B704700005D7600083D01000816
:10027000D85A0020D8600020D85C0020D85C00202C
:1002800053EA020C00F069802DE9F04B4FF00006B4
:10029000002B1FBFB3FA83F503FA05F424FA05F621
:1002A0005E4012BF1643B2FA82F502FA05F4C5F1B8
:1002B00020051EBF22FA05FC44EA0C04203556EA4C
:1002C000044C4FEA144418BF641C4FF000084FF070
:1002D0000009904271EB030C39D3002919BFB1FA20
:1002E00081F701FA07F6B0FA80F700FA07F6C7F1CE
:1002F00020071EBF20FA07FC46EA0C062037B6FB93
:10030000F4FCA7EB0507103F07F01F0BCBF120060D
:100310002CFA06F60CFA0BFB44BFB3460026202F3E
:10032000A4BF5E464FF0000B5BEA060C08BF4FF01F
:10033000010B19EB0B0948EB0608ABFB027C06FB33
:1003400002CC0BFB03CCC01B71EB0C01C1E70B46CD
:10035000024641464846BDE8F08B13B5084318BF36
:100360004FF0FF300146AFF30080BDE81C407047FE
:100370000FB47CB50C0009AA009001D02044401EA7
:10038000084B7B4469460190089800F014FC054630
:100390001CB10020694600F021FC28467CBC5DF8B9
:1003A00014FB0000610800002DE9F041064600241E
:1003B00010687529314616A510D0AFF300800028CB
:1003C00002DA404213A507E031688A0701D512A579
:1003D00002E0490704D511A5012401E0AFF3008034
:1003E00000210A2206F1240709E0B0FBF2FCB0FB71
:1003F000F2F302FB1C00303078541846491C0028E8
:10040000F3D123462A463046BDE8F04100F067B9F3
:10041000000000002D0000002B0000002000000064
:100420002DE9F05F894604464FF0000ADFF874B109
:10043000FB44C0F820A02046E1688847002874D01B
:10044000252806D0D4E901219047206A401C20626B
:10045000F1E700265F462046E168884720280546E8
:1004600007DB312D05D2781910F8200C08B10643AE
:10047000F1E7B00701D526F00406C4F81CA0002758
:10048000C4F818A02A2D09D028460DF019FD38B35C
:1004900004EB8708303DC8F8185019E059F8041BE0
:1004A000204604EB87029161E1688847012F0546E9
:1004B00018D1E069002820DA26F020061DE0D8F8DF
:1004C000180000EB800005EB40003038C8F8180039
:1004D0002046E168884705460DF0F2FC0028EED181
:1004E000012F0AD02E2D08D12046E16888477F1CB5
:1004F0000546022F46F02006C4DBA069002803DA77
:10050000404246F00106A061F00701D026F0100637
:100510006C2D0BD0682D09D04C2D39D06A2D35D0DB
:10052000742D35D07A2D33D016E038E0E1682F46AF
:1005300020468847B842054609D16C2F26D04FF493
:100540008060E168064320468847054604E06C2F3A
:100550001AD04FF4807006430DB3A5F1410019285D
:1005600002D8203546F400664A46294620462660D1
:100570004E46FFF73DFE80B101280BD0F61D26F058
:10058000070000F1080956E74020E4E78020D8E79B
:100590000020D6E706F104094DE7284652E7206A15
:1005A000BDE8F09FE6DA000040EA0103024630B5FC
:1005B0009B0710D14FF0013400E008C208C91D1B91
:1005C0009D4315EAC41FF8D013F0FF0102F8011B88
:1005D0000DD01B0AF8E711F8013B002B02F8013B94
:1005E00005D011F8013B002B02F8013BF3D130BDDF
:1005F000032A40F2308010F0030C00F0158011F84F
:10060000013BBCF1020F624498BF11F801CB00F826
:10061000013B38BF11F8013BA2F1040298BF00F87A
:1006200001CB38BF00F8013B11F0030300F0E38277
:10063000083AC0F0088051F8043B083A51F804CB5E
:10064000A0E80810F5E7121D5CBF51F8043B40F824
:10065000043BAFF30080D20724BF11F8013B11F82F
:1006600001CB48BF11F8012B24BF00F8013B00F873
:1006700001CB48BF00F8012B704702F0FF0343EAAB
:10068000032242EA024200F0EABA4FF0000200B54B
:10069000134694469646203922BFA0E80C50A0E8A5
:1006A0000C50B1F12001BFF4F7AF090728BFA0E853
:1006B0000C5048BF0CC05DF804EB890028BF40F81F
:1006C000042B08BF704748BF20F8022B11F0804F61
:1006D00018BF00F8012B70477047704770472DE92D
:1006E000F0470D4699469246044600F124080168F9
:1006F000880604D5E06921F01001216000E00120A6
:10070000A84201DD471B00E00027A1697A1902EB2E
:100710000900081AA0612078C00602D42046AFF371
:100720000080002608E0D4E901211AF8060090476D
:10073000206A401C761C20624E45F4DB2078C006FF
:100740000AD52046AFF3008006E0D4E9012130202D
:100750009047206A401C2062381EA7F10107F4DC94
:1007600007E0D4E9012118F805009047206A401CF1
:100770002062281EA5F10105F3DC2046AFF30080BE
:100780002078000602D50220BDE8F0870120FBE7B3
:100790002DE9FF4F0C461E464FF0FF378BB0D2E9D4
:1007A0000001DDF860800A908A46C1F30A5505B958
:1007B0003D46002108464FF00000BAF1000F00F45A
:1007C000400005DA00EB80004FF4400101EA5000E0
:1007D0004FEA9059B9F1010F00DDB9460A9850EA85
:1007E0004A000ED044F61050A5F2FF3545432F14B1
:1007F000B8F1000F1ED07542291E1EDDC9F100029E
:100800001CE0B8F1010F4FF0000001D0302103E0EF
:10081000F24305E02154401CB042FBDB304600228D
:10082000002121540B99C1F80880C1E900200FB0C4
:10083000BDE8F08FBD1B6D1CDEE74A4600DA694259
:1008400006A800F0B7FA06AB93E8070003AB83E80D
:10085000070050460A990CF052FF8DE80700A0F5FA
:1008600000501F3800900398002D0ADD42F21F014E
:100870004A460844002303A9039068460DF0BCF9DA
:1008800009E0A0F500504A461F38002303A9039051
:1008900068460DF0C6F98DE807000004000C03D08F
:1008A0004FF0FF30410800E01046B8F1000F03D0D0
:1008B0000022009215461EE0751E05D400F0F4F9E2
:1008C000303262556D1EF9D5B3460122084302D07D
:1008D00000227F1C04E02078302801D100227F1EF6
:1008E000002A099784D01DE0112D07DA00F0DCF909
:1008F000303262556D1C50EA0102F5D1084302D036
:100900000098C8B10EE00021681E05E0235C625C1F
:1009100063542254401E491C8142F7DBAB46A81B9E
:10092000401E0990002004F80B000B98099AC0F8AB
:100930000880C0E9002B7AE711264FF0000857E73E
:100940002DE9F04F88460446D21D22F0070191B0F0
:10095000D1E90001CDE90A010DF09AFA02460B989F
:10096000C00F01D02D2007E02068810701D52B2082
:1009700002E0202101EAC000032A099001D0072AE1
:1009800005DB03464146204600F0D4F90BE1207810
:10099000800601D5E06900E00620B8F1650F8146C8
:1009A00006D0B8F1660F18D0B8F1670F70D131E0FA
:1009B0000020B9F1110F009001DB112301E009F1D2
:1009C00001030AAA01A90CA8FFF7E2FEDDE90C70F9
:1009D000002609F10105834647E001204B460090BF
:1009E0004FF000470AAA01A90CA8FFF7D1FEDDE9E4
:1009F0000DB00C995D46002610B909F101000D18E3
:100A0000B9EB050003D4C0F1FF3609F10105A5EBF0
:100A100009002BE0B9F1010F01DA4FF001090020C4
:100A2000B9F1110F0090484601DD112300E00346A3
:100A30000AAA01A90CA8FFF7ABFEDDE90C704D4630
:100A400000268346207800070AD4AB4500DA5D46CD
:100A500001A8012D04DD411911F8011C302907D02E
:100A60004F4502DA17F1040F04DA012082460FE045
:100A70006D1EEEE7002F02DCED1B3E4403E0781C08
:100A8000A84200DD7D1CB81B00F1010A4FF00047B1
:100A90002078000703D4AA4501DB4FF0FF3A00217C
:100AA000B7F1004F0DF143088DF8431024D0022018
:100AB0002B23002F01DA7F422D230A21021EA0F1F1
:100AC000010000DC5FB197FBF1FC97FBF1F201FB49
:100AD0001C7C17460CF1300C08F801CDEEE7A8F1AC
:100AE000010003702188090501D5452100E0652139
:100AF000A0F1010800F8011C09980FA9A1EB080753
:100B0000FF1D00B10120411901EBEA70A1693844D1
:100B1000081A401EA0612078C00602D42046AFF318
:100B20000080099828B1D4E901219047206A401C2F
:100B300020622078C00622D52046AFF300801EE058
:100B4000002E04DBB34502DD01A8805D00E030200B
:100B5000D4E901219047206A401C2062761CAAF14A
:100B600001005FEA000A0AD100F09AF8C068016843
:100B7000405CD4E901219047206A401C2062281E75
:100B8000A5F10105DCDC07E0D4E9012118F8010B2F
:100B90009047206A401C2062381EA7F10107F3DC51
:100BA0002046AFF30080032011B041E601694A1CE2
:100BB00002610878704700B58FB0CDE9013100219E
:100BC000059105497944CDE9031011466846FFF7C0
:100BD00027FC0FB000BD0000E5FFFFFF0A6802F828
:100BE000010B0A607047D1E900239A4202D2531CDC
:100BF0000B601070704710B5203AC0F00B80B1E860
:100C00001850A0E81850B1E81850A0E81850203A41
:100C1000BFF4F5AF5FEA027C24BFB1E81850A0E84A
:100C2000185044BF18C918C0BDE810405FEA827C64
:100C300024BF51F8043B40F8043B08BF7047D2077B
:100C400028BF31F8023B48BF11F8012B28BF20F81C
:100C5000023B48BF00F8012B70474FF00002042907
:100C6000C0F0128010F0030C3FF411ADCCF1040C75
:100C7000BCF1020F18BF00F8012BA8BF20F8022B0F
:100C8000A1EB0C01FFF703BD5FEAC17C24BF00F8B4
:100C9000012B00F8012B48BF00F8012B7047000022
:100CA00000487047F805002030B5B0F10A0271F134
:100CB00000034FEA900E4EEA817EB0EB0E0061EB2E
:100CC00091014FEA101E4EEA017E10EB0E0041EB3F
:100CD00011114FEA102E4EEA016E10EB0E0041EB9F
:100CE00011214FEA104E4EEA014E10EB0E0041EB7F
:100CF0001141401841F100014FEAD00040EA417033
:100D00004FEAD1014FEA810444EA907410EB800568
:100D100044EB01046D1944EB0404521BA3414FF052
:100D2000000348BF0A3200D530BD401C41F100012C
:100D300030BD00002DE9F0411F460446032601683E
:100D4000072A01F4006004DB08B116A505E016A52A
:100D500003E008B115A500E015A521F01000206002
:100D6000A069C01EA0610FB1401EA0612046AFF374
:100D700000804FB1D4E9012138469047206A401CD9
:100D80002062C01C206206E0206AFAE7D4E9012153
:100D900015F8010B9047761EF8D22046AFF300807D
:100DA000BDE8F0814E414E006E616E00494E460036
:100DB000696E66002DE9F047814616468AB03548CF
:100DC00078440DC88DE80D0032487844801C03AC8F
:100DD0000DC884E80D0041F69B300844372190FB94
:100DE000F1F290FBF1F5A5F1800501FB12041B3C2B
:100DF00002D56442012000E00020DFF898A0804680
:100E00000027FA44AAF1BE0A0EE0E0070AD03246F3
:100E1000684607EB470101230AEB81010CF001FF53
:100E20008DE8070064107F1C002CEED1194F7F4421
:100E3000AE3F19E0E80715D007EB04100DF1180AD2
:100E400090E80E008AE80E00C068F04201D19819BF
:100E500008903246012306A903A80CF0E2FE03AB7A
:100E600083E807006D10641C002DE3D14FF00103EF
:100E700032466946B8F1000F03A802D00CF0BCFE60
:100E800001E00CF0CEFEC9E90001C9F808200AB063
:100E9000BDE8F087E4D1000000487047D805002085
:100EA0007546FFF7F9FFAE4605006946534620F048
:100EB0000700854618B020B5FFF7D0F9BDE82040FF
:100EC0004FF000064FF000074FF000084FF0000B06
:100ED000AC46ACE8C009ACE8C009ACE8C009ACE875
:100EE000C00921F007018D46704710B50446AFF3E5
:100EF00000802046BDE81040FFF79CB900000000CC
:100F000030B44FF0013C50F8042B51F8043BCCFABC
:100F100052F4D51A20D1FCB950F8042B51F8043BF7
:100F2000CCFA52F4D51A17D1B4B950F8042B51F8B1
:100F3000043BCCFA52F4D51A0ED16CB950F8042BFC
:100F400051F8043BCCFA52F4D51A05D1002CDAD072
:100F500030BC4FF00000704729BAB1FA81F111F0AE
:100F60001801D1F120008440F2D1CA40CB4012F0E8
:100F7000FF0213F0FF0330BCD01A7047014918205C
:100F8000ABBEFEE7260002007047000080B545F2C8
:100F90006840C2F2000000F03FFD80BD10B5846AD9
:100FA000626D616D12F0500F05D0C9060ED4E16C70
:100FB000496B884710BD41F4007060652068016886
:100FC000090707D4C068800716D40AE0204600F05D
:100FD00021FD10BD04F0A0F970B12068C068800444
:100FE0000AD4606D20F480706065606DC00403D425
:100FF000606D40F001006065204600F0FBFC10BD14
:1010000080B5806A416D41F040014165816D41F0DC
:101010000401816500F0FEFC80BD000080B5806A9F
:1010200000F0F6FC80BD0000B0B582B0002501954F
:101030000446006804F060F900284DD120683F2282
:101040008168C8F20002114209D0606D012540F0AC
:1010500010006065A06D40F00100A0653CE004F068
:1010600019F904F02BF9000215D401F031F9054605
:1010700005E000BF01F02CF9401B032821D22068B5
:101080000168C90727D104F037F90028F2D1206898
:1010900004F000F9EEE740F2D820C2F20000006848
:1010A00042F663518009C0F23E51A0FB01010120CC
:1010B00000EB9110019001980028D6D001980138DA
:1010C000F8E7606D012540F010006065A06D40F00C
:1010D0000100A06500E00025284602B0B0BD000078
:1010E00010B588B04DF6C070C0F6000090E80E5004
:1010F00044690191018B807E02920393CDF810C068
:10110000CDF814E00694ADF81C108DF81E0006F022
:101110004BFC01A806F092F808B010BD7047000023
:1011200080B5FFF7DDFF00F005F80120002108F091
:10113000E7FC80BD70B58CB04DF6DC70C0F60000E9
:1011400090E84E00D0E90454D0E906CE8DE84E0078
:10115000D0E90812D0E90A03CDE90454CDE90A0325
:10116000CDE90812CDE906CE00F080F90220012178
:10117000012408F0C5FC4DF23122C0F60002022025
:101180000021002508F0F0FC684606F047F800282A
:1011900018BF00F06FFA00F0DFF806F0F7F840F241
:1011A0005C46C2F200064FF6FF7041F21122F08257
:1011B000C0F600020120002186F8805008F0D4FC1F
:1011C00006200BF035FD05F0B1FA41F2312306F1AE
:1011D0008101C0F600030020002203F0C7FC47F2A3
:1011E000ED4306F18201C0F600030020002203F067
:1011F000BDFC40F2E040C2F20000047040F2E24068
:10120000C2F200003583047000F018F80CB070BD15
:1012100010B540F25C44C2F2000494F88000052846
:1012200008BF10BD0BF098FB002084F8800010BDB3
:1012300080B50120002108F079FD80BDF0B587B0B0
:1012400040F2E040C2F20000047840F2E24040F296
:101250005C47C2F20000C2F20007057897F88100EF
:1012600003F012FE0120397E4EF2442287F88000FE
:10127000002607F11900C0F600020723002CCDE973
:101280000063CDE90221CDE9040618BF8024002DBA
:1012900018BFA025002021462A46002306960BF001
:1012A000E5FA40F23641C2F200010E200BF074FB69
:1012B00008B107B0F0BD97F881004EF24601C0F2C8
:1012C000010103F091FD07B0F0BD00007047000080
:1012D00080B5012806D0002818BF80BD072008F07F
:1012E0002FFC80BD072008F051FC80BD10B50446DE
:1012F0004068083006F08CF8002818BF01202070E4
:1013000010BD00007047000070470000B0B504F049
:101310002FFA0446013013D004F022FA054604F0F7
:1013200019FA45F29211C2F20001220A8870280AC5
:101330004A7008712A0C08460C70CD704A71B0BD15
:10134000002005F0CFF94EF2CC01C0F600010028D4
:1013500008BF0846B0BD00002DE9F04188B0002567
:10136000ADF818500BF0EAFEFFF7D0FF044600205E
:10137000062122460BF0AAFC607940F23641C2F207
:101380000001087220794EF27C024872E078C0F6C3
:1013900000028872A0784FF01008C8726078087355
:1013A00020784873182010210BF090FC4EF26C024C
:1013B000C0F600020820102108260BF087FC01204F
:1013C000182101270BF05AFC0BF0DEFB07A80DF1EA
:1013D0001A0400900DF11E03012000210722019440
:1013E0000BF0C2F9BDF81E00BDF81C101DA40022B0
:1013F000062300940BF0E8FBBDF81E00BDF81A10A0
:1014000006AC0022022300940BF0DEFB0020022138
:1014100002220BF057FE40F25C44C2F200040120AD
:1014200027700BF073FA4BF207200121C0F2010084
:10143000C1F20801A060C4F80210CDE902500120F9
:101440000121012200236770CDE9006804950BF0AB
:10145000D1F9A078002818BF0BF066F908B0BDE8F4
:10146000F08100BF5341535F7631000080B582B0F8
:1014700040F22800C2F20300009041F2D120C0F6F1
:101480000000019041F2ED20C0F6000069460BF02B
:10149000CBFD02B080BD0000FEE7000000207047D9
:1014A0000020704710B545F29814C2F2000444F6CB
:1014B0005011C2F200012046002206F0B1FF44F2B2
:1014C0005011C2F20001204606F0A0FF002010BD1E
:1014D00010B545F29814C2F200040146204606F009
:1014E00095FF204606F06AFF002010BD00207047DF
:1014F0007047000080B580B140F23050C2F2000069
:101500000121017043F68840C2F200000168002901
:1015100008BF80BD0120884780BD43F68840C2F2E5
:101520000000016809B10020884740F23050C2F243
:1015300000000021017080BD80B5002005F0D2F8C8
:10154000002808BF80BD807904F0FEF980BD00004E
:101550007047000080B545F2F040C2F2000000F094
:10156000C1FC80BD80B545F25050C2F2000000F0D1
:10157000B9FC80BD10B501686FF007034CF6CD4291
:10158000D0F844C053FA81F3CCF6CC42A3FB022E30
:101590002CF0030240F2084C40F61C03C4F2020C8B
:1015A000C4F20203614503F1640438BF0CF57E7395
:1015B0001A44CEF3041301219940C0E912240165B5
:1015C00010BD0000416840F6001201F03F010139F2
:1015D000C4F2020202EB810302F1400C01F00301AC
:1015E000012202FA01F1C0E9153CC1657047000013
:1015F00070B5D0E913C4D0F854E0CCF80440BEF183
:10160000000F1CBFD0E916C4CCF80440D0E9106E1E
:101610000468D0F808C00EF01C00012505FA00F09F
:10162000706008466360BCF1100F04BF10460A46A4
:10163000A060E26070BD00007047000070470000CD
:1016400080B500BF032004F099F80028FAD10420E7
:1016500004F094F840B904F0D9F810B904F0DEF8B9
:1016600020B1042004F098F805F042FF032004F0B4
:1016700093F880BDEFF3108072B600BFFEE7000064
:1016800080B5042004F088F8032004F077F80028DF
:10169000FAD104F025F9032004F07EF880BD0000A3
:1016A000B0B547F29051C1F6FF7108688A6880189A
:1016B00008BFB0BD40F21C45C2F200054C68A91C31
:1016C000082203F0C1FD05F112012046042203F0B7
:1016D000BBFDB0BD704700007047000070470000C0
:1016E0007047000070470000F0B581B0044600204C
:1016F000009094F85000012802D1022001B0F0BD02
:1017000020680D46012184F8501003F001FE28B135
:10171000606D40F0200060650120AFE02068D5E9F1
:10172000002103F001FE206803F0F2FD2168064667
:10173000084603F0D1FD304340F09B8020682968C3
:10174000AA6803F00FFE206829696B69C268042942
:1017500040F088804FF6FF770021C0F2070703F0C2
:10176000B5FD216806460846002103F0AFFD72036F
:1017700090FAA0F12A68B1FA81F108BFC0F3846140
:1017800092FAA2F0B0FA80F0530308BFC2F384606B
:10179000814203D12068002103F032FE206801213C
:1017A00003F094FD216806460846012103F08EFDF2
:1017B00090FAA0F12A68B1FA81F13E4208BFC0F365
:1017C000846192FAA2F0B0FA80F03A4208BFC2F304
:1017D0008460814203D12068012103F011FE20685A
:1017E000022103F073FD216806460846022103F03A
:1017F0006DFD90FAA0F12A68B1FA81F13E4208BF6E
:10180000C0F3846192FAA2F0B0FA80F03A4208BFC5
:10181000C2F38460814203D12068022103F0F0FD0D
:101820002068032103F052FD216806460846032183
:1018300003F04CFD90FAA0F12A68B1FA81F13E4222
:1018400008BFC0F3846192FAA2F0B0FA80F03A4285
:1018500008BFC2F3846081420BD12068032103F0EA
:10186000CFFD06E0062707EA92072A68BB4003F08F
:10187000B5FD206803F040FD28B10020002184F868
:10188000501001B0F0BD20682968EA6803F07CFDC3
:10189000E8680021C4F27F01884242D1D5F800E017
:1018A0004FF080619EFAAEF27346B2FA82F76FF3A0
:1018B000DF433A462068002B08BF4FEA9E62561C61
:1018C00001EB826106F01E0C01F0F84206F01F01E8
:1018D0000126BCF1090F06FA01F60DD842EA06010D
:1018E000002B08BF4FEA9E677A1C02F01F0202EB32
:1018F000420241EA025111E0002B08BF4FEA9E6705
:10190000791C01F01F01002301EB4101CFF6206398
:1019100003EB01513243114341F00071AA6803F017
:1019200021FD688848F20801084218D00027C5F256
:10193000040703F0C3FC0646384603F0DDFC00282C
:101940007FF4E6AE296830020BD40020CCF252704E
:10195000814206D12068B8421FD000208EE70020C7
:101960008CE7F00109D40020CCF68430814204D108
:101970002068B84233D0002080E770024FF00000AA
:101980003FF57CAF0122C8F2000291427FF476AFAE
:101990002068B84228D0002070E746F4000003F029
:1019A00013FD40F2D820C2F20000006842F66351F5
:1019B0008009C0F23E51A0FB0101880900EB400004
:1019C0000C2101EB80000090009858B1009801387C
:1019D0000090009800284FF00000F7D14EE746F045
:1019E000807003E0002049E746F4800003F0ECFC3F
:1019F000002043E700680021C5F20401884218BFB7
:101A0000704740F25060C2F200000121017070473F
:101A1000704700007047000070B504460068016818
:101A2000406800EA0106B0070CD5606DC00603D41B
:101A3000606D40F4006060652046FFF74BFE206853
:101A400002210160700758BF5FEA067033D5606DF0
:101A5000C00603D4606D40F400706065206803F038
:101A60005BFC10B32068C16889041ED401680907B3
:101A70001BD503F04DFC40B1606D40F01000606577
:101A8000A06D40F00100A0650FE02068416821F0E2
:101A90000C014160606D20F480706065606DC00471
:101AA00003D4606D40F0010060652046FFF7A2FF9F
:101AB00020680C210160B00658BF5FEA466040D53F
:101AC000606DC00603D4606D40F40050606520680E
:101AD00003F006FC21680546084603F01DFC21685A
:101AE000CA6845B3930103D528B312F4005022D13C
:101AF000086840061FD5C86880021CD4084603F059
:101B0000EBFB40B1606D40F010006065A06D40F0EF
:101B10000100A0650FE02068416821F0600141608C
:101B2000606D20F480506065606DC00503D4606D09
:101B300040F0010060652046FFF7CEFD206860217F
:101B40000160300606D4F00510D4B0051BD4F006B1
:101B50003AD525E0606D40F480306065204600F0A5
:101B600013F9206880210160F005EED5606D40F426
:101B7000003060652046FFF7B3FD20684FF48071A8
:101B80000160B005E3D5606D40F4802060652046BB
:101B9000FFF7A8FD20684FF400710160F00613D52F
:101BA000606B18B1206803F0AFFB50B1606D40F47A
:101BB00080606065A06D40F00200A0652046FFF7E0
:101BC00029FF206810210160700558BF70BD206892
:101BD000616D41F480416165A16D41F00801A1652D
:101BE0004FF4806101602046FFF778FD70BD000072
:101BF00070B582B0044600200190CCB1606D30B960
:101C0000204600F0C3F80020A06584F8500020684A
:101C100003F06EFB10B1206803F034FB206803F082
:101C20006FFB38B1206803F06BFBF0B1002525E0B5
:101C30000125A5E0206803F037FB40F2D820C2F26E
:101C40000000006842F663518009C0F23E51A0FBDB
:101C500001018809022101EB400000BF01900198B9
:101C60000028DFD001980138F8E7606D012540F0C9
:101C700010006065A06D40F00100A065206803F0D1
:101C800047FB616D01F010010843606D03D040F027
:101C90001000012573E020F4817002306065206837
:101CA00003F02AFB40B90020C5F2040003F024FB36
:101CB00010B9606803F07EFB607E616B41EA4030E2
:101CC000D4E90221084394F820101043012940EA86
:101CD000014106D1606A0022CFF6FE7202EB40405D
:101CE0000143A06A28B100F47070E26A084340EA38
:101CF000020120684CF20703C268CFF6F0731A4065
:101D00001143C16003F004FB21680646084603F056
:101D1000E3FA304324D194F83000217E4200206859
:101D200042EA8131C26844F202039A431143C1601E
:101D300094F838200169012A0FD140F2FD7204F1B4
:101D40003C0621EA020C4CCEA16C42EA0C021A437A
:101D50003243114341F0010101E021F00101016131
:101D600020682169026B012922F00F0102D1E2698A
:101D7000013A11430163606D012161F30100606567
:101D8000284602B070BD00007047000070B586B0F4
:101D9000044600680021C5F2040100268842CDE90E
:101DA0000466CDE90266019601D006B070BD4FF41D
:101DB000005003F049FB0420042503F045FB0320F9
:101DC000CDE9020640F60000C4F6000001A9019525
:101DD00000F0B0F945F2F0450820C2F20005C4F267
:101DE000020005214FF4807385E8430005F11400DB
:101DF0004FF4806C4FF0200E80E808504FF4805074
:101E0000802228622846C5E9036200F0C1F8002854
:101E100018BFFFF72FFC122000210022E564AC62FE
:101E200000F09AFE122000F08FFE06B070BD000098
:101E3000F0B581B00446006815460E4603F068FA16
:101E400008B102274BE094F85000012801D1022785
:101E500045E0012084F850002046FFF7E5F820B166
:101E60000746002084F8500039E0606D40F60171AB
:101E7000884300F580706065606D41F20101C00427
:101E80004FF0000044BFA06D20F00600A065E06C9C
:101E9000226840F69D7341F21D07C0F600014FF025
:101EA000000CC0F60003C0F6000741631C21C0E926
:101EB0000B37116084F850C051682B4641F0100177
:101EC0005160D16841F00101D16002F14001324618
:101ED00000F0CCF821680746084603F039FA384686
:101EE00001B0F0BDB0B50268D0E910C4DCF8005014
:101EF000136804F01C0E590712D5042101FA0EF4E0
:101F000014EA05010CD01168890603D4116821F088
:101F100004011160CCF80440016BB9B38847B0BD2F
:101F2000990718D5022101FA0EF414EA050112D01E
:101F30001168890606D4116821F00A011160012197
:101F400080F82510CCF80440C16A002280F82420D3
:101F5000E1B18847B0BD190758BFB0BD082101FAEB
:101F60000EF1294012D0116821F00E0111600121FB
:101F700001FA0EF2CCF80420C16380F82510416B01
:101F80000022002980F8242018BF8847B0BD000037
:101F9000002804BF012070472DE9F04140F2000CF9
:101FA0000446C4F2020C00684FF6F8330CF5816267
:101FB000CBF6FD73904238BF03F5806303EB00025C
:101FC0004CF6CD43CCF6CC43A2FB032304F1080E20
:101FD0000CF580616FF003059EE804413CBF0021D1
:101FE000C4F2020105EA9303C4E91013022184F844
:101FF0002510016847F6F073994304F11407114363
:10200000E8CF41EA080141EA0E011943294331436F
:10201000394301602046FFF7ADFAA06804F1480398
:10202000B0F5804F04BF0020606060680ECB00F008
:102030003F07013803280F60536009D82046FFF797
:10204000C1FA04F1540207CA002303604A6003E0A6
:102050000020C4E91500E06500200121E06384F858
:10206000251084F82400BDE8F081000010B5044676
:1020700090F82400012820D0012084F8240094F84E
:102080002500012816D1022084F825000020E063F5
:10209000D4F800C0DCF8000020F00100CCF800000B
:1020A0002046FFF7A5FA2068226B01683AB141F09B
:1020B0000E010AE0002084F82400022010BD21F067
:1020C00004010160016841F00A010160A06C01682F
:1020D000C90303D5016841F480710160606D18B1D6
:1020E000016841F4807101602068016841F00101DC
:1020F0000160002010BD0000B0B5054600F0E8F812
:10210000691C044603D000F0E9F8054401E04FF0F3
:10211000FF3500F0DDF8001BA84228BFB0BD00BFAE
:1021200003F04EFB30BF00F0D3F8001BA842F7D3FA
:10213000B0BD00002DE9F04F82B00D68002D00F019
:10214000BD8000F1384341F200074FEAB322C4F6E4
:10215000000701920722B8424FF000044FF0000739
:102160004FF0010608BF0422009209E00D68043711
:1021700035FA06F206F1010604F1020400F09E8031
:10218000A6F10108012202FA08FA15EA0A0BEDD0BD
:10219000D1F804C00CF00309A9F1010EBEF1010F42
:1021A00012D8D0F808E00322CB68A2402EEA02023F
:1021B000A3401A4382604268CCF3001322EA0A0269
:1021C00003FA08F31A434260B9F1030F22D0032245
:1021D000D0F80CC002FA04F38A682CEA0303A24088
:1021E0001A43B9F1020FC26014D16FF0030202EA80
:1021F00058020244D2F820C007F01C030F25D1F882
:10220000109005FA03FE2CEA0E0C09FA03F343EAD8
:102210000C031362026803234D68A3409A4305F040
:102220000303A3401A4315F4403F02609ED028F0F8
:10223000030E40F20808C4F201085EF808C007F077
:102240000C050F2202FA05F3019A2CEA030C009BFD
:10225000042A38BF1346AB4043EA0C034EF808305B
:1022600040F6000EC5F6000EDEF880C04B684CEA62
:102270000B05DA0358BF2CEA0B05CEF88050DEF8C8
:1022800084C09A034CEA0B0558BF2CEA0B05CEF824
:102290008450DEF800C0DA024CEA0B0558BF2CEA85
:1022A0000B05CEF80050DEF804209B0242EA0B0535
:1022B00058BF22EA0B05CEF8045057E702B0BDE83C
:1022C000F08F00001823002A08BF2823C150704750
:1022D00045F6D020C2F200000068704740F2554039
:1022E000C2F200000078704740F25840C2F200008D
:1022F000006870477047000080B541F20051C5F694
:102300000001C8680A6882430A604860FFF7F2FF6C
:1023100080BD000090F84120202A03D190F8402091
:10232000012A01D102207047242280F8412002684E
:10233000136823F001031360136823F480531360C0
:10234000136819431160116841F0010111602021E7
:1023500080F84110002180F84010084670470000C6
:1023600090F84120202A03D190F84020012A01D181
:1023700002207047242280F841200268136823F06D
:1023800001031360136823F4706343EA01211160B1
:10239000116841F001011160202180F841100021F5
:1023A00080F8401008467047002804BF012070479D
:1023B00010B5044690F8410028B9002084F8400088
:1023C000204600F095F9242084F8410094E8031099
:1023D000E368026821F0706122F00102026001618D
:1023E0008168012B21F4004181604FF4044108BF52
:1023F0004FF4004141EA0C01022B816004BF4FF40D
:1024000000614160416804F1100C41F0007141F439
:1024100000414160C16821F40041C1609CE80E1098
:10242000114341EA0321C160216A41EA0C010160C4
:10243000016841F00101016000202021606484F8FE
:102440004110206384F8420010BD00002DE9F043E4
:1024500081B0044690F84100202805D194F840004E
:10246000012803D1022714E0022712E001271D46AC
:102470001646884684F84070FFF72AFF81462046BA
:102480004FF4004101221923CDF8009002F0D4FD51
:1024900018B1384601B0BDE8F083222084F841002D
:1024A000102084F8420000206064666265856063E5
:1024B000608D42F20047B0F5807FC8F2000707D375
:1024C000FF20208520464146FF224FF0807306E022
:1024D000608D41462085C2B220464FF000730097C0
:1024E00002F092FD608D089FD8B30025FF260BE017
:1024F000608D41462085C2B220464FF000730095A2
:1025000002F082FD608D60B3204639464A4602F0F3
:10251000D1FD70BB2068616A406A0870606A218DD5
:102520000130013960622185608D0904A0F101004C
:102530006085608DE6D10028E4D02046802100220D
:102540003B46CDF8009002F077FD30BB608DB0F5D2
:10255000807FCDD3268520464146FF224FF08073F1
:10256000CDE7204639464A4602F0E4FD18B101277E
:102570008FE701278DE720682021C16142684EF670
:102580000003CFF600631A400027426084F8411030
:1025900084F8427084F840707BE7012779E70000F7
:1025A0002DE9F04381B0044690F84100202805D180
:1025B00094F84000012803D1022714E0022712E01A
:1025C00001271D461646884684F84070FFF780FEB6
:1025D000814620464FF4004101221923CDF8009096
:1025E00002F02AFD18B1384601B0BDE8F083212081
:1025F00084F84100102084F8420000206064666284
:1026000065856063608D42F20007B0F5807FC8F297
:10261000000707D3FF20208520464146FF224FF0C8
:10262000807306E0608D41462085C2B220464FF09F
:102630000073009702F0E8FC608D089FC8B3002586
:10264000FF260BE0608D41462085C2B220464FF048
:102650000073009502F0D8FC608D50B320463946D7
:102660004A4602F08DFD60BB606A216810F8012BBC
:102670008A626062608D01386085208D411E2185EF
:10268000608D0904E8D10028E6D020468021002290
:102690003B46CDF8009002F0CFFC30BB608DB0F52A
:1026A000807FCFD3268520464146FF224FF080739E
:1026B000CFE7204639464A4602F03CFD18B10127D3
:1026C00091E701278FE720682021C16142684EF61B
:1026D0000003CFF600631A400027426084F84110DF
:1026E00084F8427084F840707DE701277BE70000A2
:1026F00010B586B0006845F20041C4F20001002424
:102700008842CDE90444CDE90244019401D006B0E9
:1027100010BD022002F098FE4FF44070019012208C
:10272000CDE902040420059040F20040C4F6000008
:1027300001A90494FFF7FEFC4FF4001002F0D0FE54
:1027400006B010BD002804BF01207047B0B5044694
:1027500090F8380010B9204600F014F840F6004513
:10276000C5F60005284602F045FD286840F0011036
:102770002860204602F046FD00200121606384F8B5
:102780003810B0BD80B5006840F60041C5F60001C4
:10279000884218BF80BD4FF4801002F083FE80BDD8
:1027A000704700007047000040F2554045F6D021C8
:1027B000C2F20000C2F2000100780A68104408600A
:1027C0007047000080B544F20000C5F600000168C3
:1027D00041F480710160032000F0CEF9002000F088
:1027E00009F800281CBF012080BD00F097F90020E7
:1027F00080BD0000B0B540F25545C2F20005297811
:10280000F1B1044601F038F929784FF47A72B2FB3D
:10281000F1F1B0FBF1F001F017FD0F2C4FF00105C5
:102820000CD858B94FF0FF3021460022002500F0A7
:1028300093F940F25840C2F2000004602846B0BD4F
:1028400001252846B0BD0000704700007047000019
:10285000704700007047000070470000704700009C
:1028600090F836007047000010B504460068016813
:10287000C9071CBF81685FEAC17130D12068016857
:10288000890744BF81685FEA81712ED4206801689E
:10289000490744BF81685FEA41712CD42068016810
:1028A000090744BF81685FEA01712AD42068016882
:1028B000C90644BF81685FEAC16128D42068016805
:1028C000890644BF81685FEA816126D42068016877
:1028D000490644BF81685FEA416124D410BD0121EB
:1028E00041602046FFF7B4FFC8E70221416020465F
:1028F000FFF7AAFFCAE704214160204600F00CF967
:10290000CCE7082141602046FFF7A4FFCEE7102165
:1029100041602046FFF79AFFD0E720214160204622
:10292000FFF79CFFD2E7402141602046FFF794FF6C
:1029300010BD0000002804BF012070472DE9F041C0
:10294000044690F8360028B9002084F83500204667
:1029500000F05EF8022084F83600D4E900C2DCF80A
:102960000C30012A02D123F01E0305E0A06AB0F565
:10297000000F08BF23F01E03A168D4F814E0D4E9C7
:1029800008564FF6FF7741F23E18BE454FF2FE174C
:1029900041EA0201A06ACFF6197818BF03EA0803DA
:1029A000CFF6197729433B403143194341EA0003ED
:1029B00022B9E1692569194341EA0503012A18BFD3
:1029C000B0F5000F04D1D4E90301184340EA010334
:1029D0004FF6FF70864506D0D4E9060143EA0E02A1
:1029E000104340EA010347F60040CCF80C30C4F233
:1029F0000000E16A844502D0CCF8201002E0226B8E
:102A000011430162012084F836000020BDE8F08106
:102A100010B586B0006847F60041C4F200010024FA
:102A20008842CDE90444CDE90244019401D006B0C6
:102A300010BD4FF0004002F053FD042002F004FDF1
:102A4000082001900220CDE902040120059040F603
:102A50000000C4F6000001A90494FFF76BFB2F20CF
:102A60000021002200F078F82F2000F06DF806B069
:102A700010BD0000B0B50446022084F8360020687E
:102A800040F6800C47F60043C5F6000CC4F2000384
:102A9000DCF8005098424FF0804308BF4FF00053DD
:102AA0002B43CCF80030C368154643F40022C260C3
:102AB000026942F0010202611022426081612046F7
:102AC000102103F06FFA032811D02068082141601B
:102AD00045612046082103F065FA032807D0204607
:102AE00003F0D6F92046FFF7BBFE032801D10320EF
:102AF000B0BD2068816841F001018160016941F049
:102B000001010161016941F004010161012084F8C2
:102B100036000020B0BD00007047000080B54FF4C3
:102B2000002002F0BFFC2E200021002200F014F84B
:102B30002E2000F009F880BD80B509F087FD80BD2A
:102B400080B509F093FD80BD80B509F0A3FD80BD7F
:102B500080B509F0B7FD80BD70B514460D46064638
:102B600009F0A8FD2946224603F092FD01463046B1
:102B700009F0B8FD70BD000080B509F0C5FD80BD4D
:102B800001220168C0F8E822002280F8E022B1F8B2
:102B9000540040F00100A1F85400B1F8540040F096
:102BA00002020020A1F854207047000010B501294E
:102BB000044611D001BBA06948B104F0C7FC4EF631
:102BC0001050CEF20000016821F006010160D4F837
:102BD000F00205F075FF10BDD4F8F00205F0D2FF49
:102BE000A069002808BF10BD4EF61050CEF20000BC
:102BF000016841F00601016010BD000080B501F0E0
:102C0000070C0CEB8C0C00EBCC0C0CF1280C01EB42
:102C1000810E090600EBCE0058BF00F5B47C4AB126
:102C200001208CF80C00180CACF80A000020ACF85D
:102C3000083080BD00208CF80C000020ACF8063075
:102C400080BD000080B501EB8102D0F8F03200EBCE
:102C5000C200C26B184605F005FE80BD80B501EBD1
:102C60008102D0F8F03200EBC200D0F87C21184687
:102C700005F04CFE80BD000010B50446080601F0CA
:102C8000070000EB800104EBC10205D402F5B4712A
:102C9000002382F8693104E0012302F1280182F85F
:102CA000293094F8A8220870012A04BF022010BD20
:102CB0002068012284F8A82206F04AFA002084F84D
:102CC000A80210BDB0B50446406801F00F02824270
:102CD00084BF0120B0BD080601F0070000EB8001B1
:102CE00004EBC10205D402F5B471002382F8693106
:102CF00004E0012302F1280182F8293094F8A82287
:102D00000025012A8D70087004BF0220B0BD206824
:102D1000012284F8A82206F0BFFA284684F8A852B7
:102D2000B0BD0000B0B500685304B0F8504091F851
:102D300000E000EB040348F2C00C03EBCE0316D412
:102D4000B3F806448B696FF39F241B1B38BF002325
:102D50008B611AD9520624D430F82E2040F60F7316
:102D60001A4042EA0C0220F82E20DCB93BE0B3F80E
:102D700002448B696FF39F241B1B38BF00238B61B8
:102D800013D952061DD434BB2DE030F82E3043F653
:102D90000F752B400CF5FE556B4020F82E30520677
:102DA000DAD504B34B694A8917E030F82E3043F680
:102DB0000F752B400CF5FE556B4020F82E30520657
:102DC000E1D530F82E2040F60F731A4042EA0C028B
:102DD00020F82E203CB14B690A891946234606F09B
:102DE00019FE2046B0BD2046B0BD00002DE9F041DF
:102DF000804600680D46B0F85030097816465206F5
:102E00004FEAC102034413442ED4B3F80634AF6929
:102E10006FF39F23FF1A38BF0027AF6154D977049F
:102E200009D430F8217040F60F7637404CF2800616
:102E3000374320F8217095F82410012940F056817D
:102E4000D5E904C1D5E9077619441F44664569618F
:102E5000EF6180F0B380002E00F0F0800023B446D4
:102E60002B6285F82430EDE0B3F80234AC696FF3DF
:102E70009F23E41A38BF0024AC613AD9770409D5FE
:102E800030F8217040F60F7637404CF28006374319
:102E900020F8217095F82410012940F02781D5E908
:102EA0000461D5E9077C19441F44B4456961EF61A9
:102EB00080F088804FF0000EBCF1000F85F824E010
:102EC00040F083809C4682E06B78012B38D0002B49
:102ED00040F09A80B0F8507084182744B7F8024444
:102EE00024F4F844A7F80244B7F8024444F4004438
:102EF0002BE06B78012B3DD0002B4BD1B0F850C0AC
:102F000084186444B4F8027427F4F847A4F80274EF
:102F1000B4F8027447F40047A4F80274012B32D0CD
:102F2000C3BBB0F8503010441844B0F8062422F463
:102F3000F842A0F80624B0F8062442F4004227E044
:102F4000B0F85070841827440024012BA7F80244DD
:102F500053D0002B58D1B0F8503010441844B0F87A
:102F6000062422F4F842A0F80624B0F8062442F41D
:102F7000004247E0B0F85070841827440024A7F8B6
:102F80000244012BCCD1B0F8503010441844002238
:102F9000A0F806244046FFF755FE700440F1A680D5
:102FA000D8F80000297840F60F7330F821201A4035
:102FB0004CF280031A4320F8212097E0A6EB0C0383
:102FC0002B623FE0ACEB060EB446C5F820E06B7810
:102FD000012B2CD0002B70D1B0F850300244BCF142
:102FE000000F02F202424AD0BCF13E0F57D80CF05B
:102FF000010707EB5C07BF025EE0B0F850301044F9
:1030000018440022A0F806244046FFF71BFE700477
:103010006CD4D8F80000297840F60F7330F82120DE
:103020001A404CF280031A4320F821205EE0B0F8E9
:10303000503002441A44A2F802C43EE0002785F84A
:1030400024709C466B78012B12D0002B49D1B0F82C
:1030500050300244BCF1000F02F2064217D0BCF11E
:103060003E0F30D80CF0010707EB5C07BF0237E0DA
:10307000B0F8503002441A44A2F806C431E09F5A16
:1030800027F4F8479F529F5A47F4004714E09F5A8D
:1030900027F4F8479F529F5A47F4004720E04FEA31
:1030A0005C174FF0FF365FEACC6408BF06EB5C1795
:1030B0004FF4004646EA87279F522A891FFA8CF36D
:1030C00006F0C8FC12E04FEA5C174FF0FF365FEAEB
:1030D000CC6408BF06EB5C174FF4004646EA87272E
:1030E0009F526A891FFA8CF306F0B4FCD8F80000EE
:1030F000297840F63F7330F821201A4048F2B00397
:103100005A4020F82120BDE8F081000001F00701BD
:1031100001EB810100EBC100D0F884017047000091
:10312000B0B50546080601F0070000EB800105EB8D
:10313000C10C05D40CF5B47100248CF8694104E08D
:1031400001240CF128018CF829404C780870002CDF
:103150000A61CB7018BFC881022B04BF0020087120
:1031600095F8A802012804BF0220B0BD28680122FA
:1031700085F8A82205F0ECFE002085F8A802B0BD75
:1031800010B501F0070C0CEB8C0100EBC10E0068D0
:103190000EF5B4710024CEF87C21CEF88031CEF843
:1031A00084418EF869418EF868C106F0CFF800209E
:1031B00010BD000010B54268044601F007009042BF
:1031C00084BF012010BD0A0609D401EB810104EB84
:1031D000C10202F5B471002382F8693108E000EB06
:1031E000800104EBC102012302F1280182F8293099
:1031F00094F8A8320122012B8A70087004BF0220C3
:1032000010BD206884F8A82206F086F8002084F813
:10321000A80210BD80B501F0070C0CEB8C0100EB8F
:10322000C10101F828CF00684FF0010C01F114072B
:1032300081F824C04FF0000E87E80C400B6281F843
:1032400001C006F083F8002080BD000010B50446E0
:10325000006806F0DBFB000402D5204603F03AFBD1
:10326000206806F0D3FB40050DD52068B0F8441067
:1032700021F48061A0F84410204600F03DF920467A
:10328000002100F065F9206806F0C0FB400406D577
:103290002068B0F8441021F48041A0F84410206860
:1032A00006F0B4FB800406D52068B0F8441021F481
:1032B0000051A0F84410206806F0A8FBC00421D5F6
:1032C0002068B0F8401021F00401A0F84010B0F8D8
:1032D000401021F00801A0F8401094F8E002012805
:1032E00006D1002084F8E00220460021FFF75EFCB2
:1032F000204600F013F92068B0F8441021F4805102
:10330000A0F84410206806F081FB000515D5206860
:10331000B0F8401041F00801A0F84010B0F8441097
:1033200021F40061A0F84410B0F8401041F004010D
:10333000A0F84010204600F03FF9206806F066FB38
:10334000000627D52068B0F8441021F08001A0F8CD
:10335000441094F8E01219B1204600F02DF919E05C
:10336000B0F8401041F00401A0F84010B0F840104F
:1033700041F00801A0F84010012184F8E012B0F8F3
:1033800054003C2101EA9000C4F8E40220460121E7
:10339000FFF70CFC206806F039FB800509D5206892
:1033A000B0F8441021F40071A0F84410204600F059
:1033B000C9F8206806F02AFBC00558BF10BD206878
:1033C000B0F8441021F48071A0F8441010BD000042
:1033D000F0B585B000285DD0054690F8A90228B95F
:1033E000002085F8A802284600F058F8032085F848
:1033F000A902286805F046FF6968C1B16968002024
:103400004FF0010C0022002302EB820205EBC20404
:1034100084F82830DAB20133E286DAB2914284F8D5
:1034200029C084F82B00C4E90E002064ECD8A9B1AF
:1034300000200023002200BF03EB830305EBC3043D
:1034400084F868210132D3B2994284F8690184F882
:103450006B01C4E95E00C4F88001EDD805F1080EE7
:1034600028689EE81C50D5E907678DE81050CDE923
:10347000036705F0F9FE0020012185F8240085F896
:10348000A912E969012903D12846FFF779FB002039
:1034900005B0F0BD012005B0F0BD000010B586B04C
:1034A000006846F60001C4F2000100248842CDE91C
:1034B0000444CDE90244019401D006B010BD01F0EE
:1034C000D1FF4FF4C05001900220CDE902040A2040
:1034D000059001A94FF090400494FEF72BFE02F0F6
:1034E0000DF8142000210022FFF736FB1420FFF70F
:1034F0002BFB06B010BD000010B504468068022802
:1035000018BFFEF7B7F8D4F8F002012105F0F2FA7F
:10351000D4F8F00205F0A2FA10BD000010B5044680
:10352000806948B14EF61050CEF20000016821F0DB
:103530000601016004F00AF8D4F8F00205F0C0FAC0
:1035400010BD000080B5D0F8F00205F0C3FA80BDD0
:1035500010B5044690F8A802012804BF022010BD4F
:10356000012084F8A80284F82410206806F06AFA82
:10357000002084F8A80210BD80B5D0F8F02200F534
:103580002C71104605F0C2FA80BD000010B504464B
:1035900090F8A802012804BF022010BD2068012174
:1035A00084F8A81206F020FA206805F053FE0020E7
:1035B00084F8A80210BD000010B50446D0F8F0024F
:1035C00005F0E0FAA069002808BF10BD4EF61050C3
:1035D000CEF20000016841F00601016010BD00005C
:1035E00040F20440C5F60000016841F480610160CA
:1035F0007047000040F20042C5F6000213684EF624
:10360000105123F00703CEF2000113600A6801286D
:1036100042F004020A600FBF30BF40BF20BF20BF8E
:10362000086820F0040008607047000040F2004C79
:10363000C5F6000CDCF8003001224EF6105162F3A2
:103640000203CEF20001CCF800300A68012842F0F3
:1036500004020A600FBF30BF40BF20BF20BF086810
:1036600020F004000860704740F20040C5F60000FA
:10367000006800F4C060704740F20040C5F60000EA
:10368000016841F4807101607047000080B5B0F5B9
:10369000804F084602D1FFF7C9FF80BDFFF7AAFFA0
:1036A00080BD000080B502F067FA80BDF0B581B042
:1036B00004460078400602D4002500261EE0206B58
:1036C0006FF0010101EBB051022913D34FEAB05062
:1036D000002842D0012847D10C20C5F6000001681F
:1036E000002641F4803101603EB9206B02F064FB9A
:1036F000002503E00026002EF7D03546607800074D
:103700003AD502F0E5F8216C884234D00546FFF73F
:10371000B3FF6DB30C25C5F60005D5F8847002F033
:103720009FF802F0A7FA206C27F440710843C5F80F
:10373000840002F0B7F901281DD1FEF7C9FD054646
:1037400041F2893702F0BEF9012814D0FEF7C0FD1E
:10375000401BB842F6D303250EE0201D03F0B2FA59
:103760000646002EC9D1C0E70126002EC5D1BCE710
:10377000206C02F017FB35462078C00702D0A06904
:1037800002F054FB2078800702D5E06902F0ECFAE1
:103790002078C00602D5A06A02F0CAFA2078800616
:1037A00002D5E06A02F0C4FA2078400702D5206A08
:1037B00002F0AEFA2078000702D5606A02F0A8FA9B
:1037C0006078C00717D0606B02F03AFB606BB0F115
:1037D000806F0AD0B0F1006F0DD10C20C5F600004B
:1037E000016841F08071016005E0201D03F0A8FA36
:1037F000002818BF05466078800713D5A06BB0F18C
:10380000004F18BFB0F1804F21D102F0C1FAA06B78
:10381000B0F1C05F06D10C20C5F60000016841F090
:10382000807101606078400722D5E06B02F02AFACF
:10383000E06BB0F1805F15D0B0F1005F18D10C20C3
:10384000C5F60000016841F48031016010E00028F5
:10385000DBD020F08056002002F09AFA304602F0C9
:1038600045FAD4E7201D03F0A9FA002818BF054641
:103870006078C00602D5606C02F080FA607880063D
:1038800005D5E06C02F0B4FAA06C02F0A7FA284665
:1038900001B0F0BD2DE9F041002800F0C48044F2F1
:1038A0000007C5F60007054638680C4600F007001B
:1038B000884214D2386820F0070020433860FEF7B1
:1038C00007FD0646386800F00700A04207D0FEF763
:1038D000FFFC801B0228F5D90320BDE8F081287881
:1038E00080072CD4287880063CD4287840064BD416
:1038F000287840075AD42878000769D42878C00768
:1039000040F08880386800F00700A04275D9386818
:1039100020F0070020433860FEF7DAFC054600BFC0
:10392000386800F00700A04267D0FEF7D1FC401BCA
:1039300002284FF0030088BFBDE8F081F0E7A868D7
:1039400002F0B6F9FEF7C4FC064600BF02F05AF8D2
:103950000028C7D1FEF7BCFC801B0228F6D9032043
:10396000BDE8F081686901F0BBFEFEF7B1FC0646D8
:1039700002F040F80028B8D1FEF7AAFC801B02280C
:10398000F6D90320BDE8F081A86902F085F9FEF7B9
:103990009FFC064602F05EF80028A9D1FEF798FCCD
:1039A000801B0228F6D90320BDE8F081E86802F008
:1039B00089F9FEF78DFC064602F034F800289AD10A
:1039C000FEF786FC801B0228F6D90320BDE8F081B3
:1039D0002869C00002F080F9FEF77AFC064600BFB5
:1039E00002F028F800287FF489AFFEF771FC801BF5
:1039F0000228F5D90320BDE8F08100F03DF840F23F
:103A0000D821C2F200010860FEF76EFCFEF7F2FE5C
:103A1000BDE8F081686848B1032822D0022825D18A
:103A200001F08CFF30B90120BDE8F08102F0B6F85A
:103A30000028F8D0686802F0EFF9FEF749FC064666
:103A400041F2883801F054FF6968B0EB810F3FF410
:103A500059AFFEF73DFC801B40454FF00300F1D904
:103A6000D6E702F0F9F80028E4D1DCE701F0B2FF74
:103A70000028DFD1D7E7000010B500F037F8044682
:103A800001F0FEFE3C2101EA90004EF20C01C0F66E
:103A900000010858B4FBF0F010BD000010B5FFF7AE
:103AA000EBFF044601F0F4FE4EF24C01C0F302209D
:103AB000C0F6000151F8200000F01F0024FA00F0C9
:103AC00010BD000010B5FFF7D7FF044601F0E8FE77
:103AD0004EF24C01C0F3C220C0F6000151F82000A4
:103AE00000F01F0024FA00F010BD0000B0B542F253
:103AF0000044C0F2F40401F0FBFE08280ED00428B4
:103B000041D0B0B902F040F83C2101EA90004EF2F9
:103B10008C01C0F600010C582046B0BD01F008FF32
:103B200044F60001C0F2E811012808BF214608460A
:103B3000B0BD02F079F8022815D0032809D101F0B0
:103B4000F7FE44F60001C0F2E811012818BF0C4648
:103B500009E002F019F83C2101EA90004EF28C01D4
:103B6000C0F600010C5802F067F8444302F054F824
:103B7000012505EB1010B4FBF0F402F065F805EB3D
:103B80005070B4FBF0F42046B0BD00002DE9F043C6
:103B900081B0F8B10446007880066CD501F0A8FE2B
:103BA000054602F041F8BDB10C2D08BF012813D025
:103BB000E069002843D001F0D7FFFEF789FB0546F6
:103BC00001F0ECFF00284BD1FEF782FB401B0228DE
:103BD000F6D941E001209FE201F0E0FF08B1E06981
:103BE00048B3656A01F0D0FF0146606A8D4209D989
:103BF00003F06AF9F8B9606A01F0E0FF206A01F0A9
:103C0000D3FF08E001F0DAFF206A01F0CDFF606A1F
:103C100003F05AF978B9FFF72FFF40F25841C2F28A
:103C2000000140F2D8220968C2F200021060084682
:103C3000FEF7E0FDD0B14FF00109002017E001F0E0
:103C40008BFFFEF745FB054601F0A8FF70B1FEF7BC
:103C50003FFB401B0228F7D94FF00309002006E084
:103C6000606A01F0ABFF206A01F09EFF012000288E
:103C7000484600F051822078C0071CD001F038FE81
:103C8000054601F0D1FF082D0AD00C2D08BF0328EE
:103C900006D06068B0F5803F3AD101F041FE39E0CE
:103CA00001F04CFE10B16068002851D001200028BE
:103CB000484600F031822078800769D501F018FE6F
:103CC000054601F0B1FF042D18D00C2D08BF0228C5
:103CD00014D0E068002843D001F06EFEFEF7F8FA39
:103CE000054600BF01F076FE68B9FEF7F1FA401B09
:103CF0000228F7D94FF00309002745E001F06AFEDA
:103D000008B1E06840B3206901F06AFE01273BE09A
:103D100001F0FEFD6568FEF7DBFA002D054612D0C6
:103D200001F00CFE0028C1D1FEF7D2FA401B642836
:103D3000F6D94FF003090020B9E700BFFEF7C8FA33
:103D4000401B6428F5D801F0F9FD0028F6D1ADE755
:103D50004FF001090020AAE74FF00109002713E006
:103D600001F01AFEFEF7B4FA054600BF01F032FE7C
:103D7000B0FA80F14FEA511730B1FEF7A9FA401BB3
:103D80000328F3D34FF00309002F484600F0C48105
:103D9000206810F0180F6CD0616999B110F0100014
:103DA00020D101F0A7FEFEF793FA054601F0AAFE26
:103DB00000283CD1FEF78CFA401B02284FF003008C
:103DC000F4D9A9E101F0A6FEFEF782FA054600BF8C
:103DD00001F0B0FED8B1FEF77BFA401B0328F7D9FB
:103DE000032099E101F08EFE002800F0E98001F047
:103DF00099FEFEF76DFA054601F09CFE28BBFEF722
:103E000067FA401B03284FF00300F5D984E101F065
:103E100069FEFEF75DFA054601F074FE48B3FEF751
:103E200057FA401B02284FF00300F5D974E101F066
:103E300071FE00BF01F07EFED8B1FEF749FA401BCB
:103E400003284FF00300F5D966E1A06901F07AFE7E
:103E500001F048FEFEF73CFA054600BF01F052FEB5
:103E600038B1FEF735FA401B02284FF00300F5D9B0
:103E700052E1207840074AD42078400668D4E06AAE
:103E800000287AD040F20C08C5F6000801F030FD99
:103E9000D8F80010E26A022A71D1226B01F0030304
:103EA000934274D1626B01F0700393426FD1A26BA5
:103EB000C1F3062393426AD1E26B01F47813934273
:103EC00065D1226C01F06063934260D1626C01F0B5
:103ED000604191425BD14FF0B0473868800100F1FA
:103EE0001F8101F091FED8F8000040F08050C8F822
:103EF0000000FEF7EDF90446386810F0007540F058
:103F00000481FEF7E5F9001B0228F5D9FBE00C2738
:103F1000C5F60007D7F8F403C00511D4FFF7ACFBD2
:103F2000FEF7D6F9054600BFD7F8F403C00507D45D
:103F3000FEF7CEF9401B02284FF00300F4D9EBE066
:103F4000A068052861D0012864D101F09BFD65E0DF
:103F5000A06A002847D001F00FFDFEF7B9F9054629
:103F600001F012FD00287FF48AAFFEF7B1F9401B83
:103F700002284FF00300F3D9CEE00020CCE00C285B
:103F80004FF0010770D100254FF00109C0E00C2867
:103F900066D04FF0B0473868400161D401F02CFE84
:103FA000FEF796F905463868800140F18180FEF7FA
:103FB0008FF9401B0228F6D94FF003090025A7E02E
:103FC00001F098FDFEF784F9054600BF01F09AFD67
:103FD00000287FF40CAFFEF77BF9401B02284FF05E
:103FE0000300F3D998E001F0BFFCFEF771F9054634
:103FF00001F0CAFC00283FF442AFFEF769F9401B0C
:1040000002284FF00300F3D986E001F043FD01F0F0
:1040100039FD03E001F026FD01F02CFDA568FEF757
:1040200057F9002D054641F2883714D001F042FDC2
:1040300000287FF421AFFEF74BF9401BB8424FF048
:104040000300F3D968E000BFFEF742F9401BB84215
:104050004FF0030060D801F02DFD0028F4D10BE7EC
:104060004FF00109002553E001F0C6FDD8F800002B
:104070004FF6FF7120F00300C8F80000D8F80000E8
:10408000CEF6FE610840C8F80000FEF721F90446AC
:104090004FF0B046306810F0007087EA506537D0B6
:1040A000FEF716F9001B0228F4D94FF003092FE0A0
:1040B000D8F8000048F28C01C1F2C11104F13007B8
:1040C00008408ECFD4E910650843104340EA03202E
:1040D000384330432843C8F8000001F095FDD8F874
:1040E000000040F08050C8F80000FEF7F1F80446E8
:1040F0004FF0B046306810F0007506D1FEF7E8F8D2
:10410000001B0228F6D94FF00309002D18BF012526
:104110004846002D18BF0020C0B201B0BDE8F083B2
:104120000125F5E710B5D8B1044690F8210028B96B
:10413000002084F82000204600F054F8022084F883
:1041400021002068CA21416253214162204602F0C9
:10415000E3FE216830B1FF204862042084F821008A
:10416000012010BD88684FF6BF72CFF68F721040E5
:10417000886004F1040E23699EE801501843A36986
:104180008A68184310438860C1F810E0086940EA63
:104190000C400861C86820F08000C860C86C20F03E
:1041A0000300C864E0696269CB6C10431843C864BB
:1041B000886880060ED4204600F024F850B12068AC
:1041C000FF214162042084F82100002084F82000AF
:1041D000012010BD2068FF214162012084F82100E8
:1041E000002010BD80B5006842F60001C4F2000155
:1041F000884218BF80BD01F023FB4FF4806001F0BE
:104200006FF980BDB0B504460068C16821F0A00117
:10421000C160FEF75DF805462068C068800607D4D7
:10422000FEF756F8401BB0F57A7FF5D90320B0BDF4
:104230000020B0BD4EF21000CEF20000016841F047
:10424000020101607047000080B503F063F980BD92
:104250004EF21000CEF20000016821F00201016070
:104260007047000070470000704700007047000072
:1042700010B590F83C20012A4FF0020227D001230C
:1042800080F83C3080F83D20026842F6004E5368CA
:10429000D2F808C0C4F2010E724503D14C6823F471
:1042A000700323430C6823F070032343724553606B
:1042B00002D0B2F1804F04D189682CF080031943F9
:1042C00091600121002280F83D1080F83C201046CA
:1042D00010BD0000002804BF0120704710B504463F
:1042E00090F83D0028B9002084F83C00204600F0FA
:1042F00023F8022084F83D002068211D03F0F8F91E
:10430000012084F8480084F83E0084F83F0084F8D7
:10431000400084F8410084F8420084F8430084F8A7
:10432000440084F8450084F8460084F8470084F887
:104330003D00002010BD000080B5006842F600413D
:10434000C4F20101884218BF80BD4FF4006001F043
:1043500005F9192000210022FEF7FEFB1920FEF7C7
:10436000F3FB80BD90F83D1001291CBF0120704770
:10437000022180F83D10016842F60042C868C4F28C
:104380000102914240F00100C86002D0B1F1804FBB
:1043900012D188680722C0F201020240062A4FF0BB
:1043A00000000ED0B2F5803F08BF7047086840F0AB
:1043B0000100086000207047086840F001000860B4
:1043C0000020704710B5044690F83C0001284FF0DB
:1043D000020008BF10BD012284F83C2084F83D0093
:1043E000206888238268CFF6CE731A4082600A68FC
:1043F0003F2A14DD5F2A18DD602A28D0B2F5005F5D
:104400002DD0702A40D1D1E9012CCB68614603F050
:10441000B3F92068816841F07701816034E01F2A98
:104420000FDC92B1102A10D02EE0402A23D0502A5F
:104430002AD14B68CA68194603F0B6F920685021A2
:1044400020E0202A01D0302A1ED111461AE04B6804
:10445000CA68194603F0BAF92068602112E0D1E970
:10446000012CCB68614603F087F92068816841F42C
:104470008041816008E04B68CA68194603F094F9EE
:104480002068402103F084F9012084F83D000020D9
:1044900084F83C0010BD00007047000010B50446D1
:1044A00000680169890744BFC1685FEA817140D42F
:1044B00020680169490744BFC1685FEA417144D47B
:1044C00020680169090744BFC1685FEA017149D4E6
:1044D00020680169C90644BFC1685FEAC1614DD463
:1044E00020680169C9071CBFC1685FEAC17152D168
:1044F00020680169090644BFC1685FEA016151D4BF
:1045000020680169C90544BFC1685FEA016150D4F0
:1045100020680169490644BFC1685FEA41614FD420
:1045200020680169890644BFC1685FEA81614ED491
:1045300010BD6FF0020101610121217780698007C0
:104540004CD02046FFF7A8FF4EE06FF00401016158
:1045500002212177806910F4407F48D02046FFF780
:104560009BFF4AE06FF00801016104212177C069D7
:10457000800745D02046FFF78FFF47E06FF010011E
:10458000016108212177C06910F4407F41D02046A5
:10459000FFF782FF43E06FF001010161204600F068
:1045A00045F8A5E76FF0800101612046FFF75CFE4A
:1045B000A6E76FF4807101612046FFF753FEA7E77D
:1045C0006FF040010161204600F03EF8A8E76FF06F
:1045D000200101612046FFF749FE10BD204600F092
:1045E00021F8204600F020F80020207760E72046E0
:1045F00000F018F8204600F017F8002020775FE759
:10460000204600F00FF8204600F00EF8002020773A
:104610005EE7204600F006F8204600F005F800208E
:1046200020775DE7704700007047000080B50068A4
:1046300042F60041C4F20101884218BF80BD042047
:10464000002105F073FB80BD7047000090F88010DA
:10465000012904BF022070472421C0F88410026899
:104660001168136823F00103136021F00053002147
:10467000416613602022C0F8842080F8801008462C
:1046800070470000B0B5044690F88000012804BFD0
:104690000220B0BD012084F880002420C4F88400EA
:1046A00020680568026822F001020260826822F038
:1046B000606211438160204603F010FA20680560B3
:1046C0002020C4F88400002084F88000B0BD0000E1
:1046D000B0B5044690F88000012804BF0220B0BDA8
:1046E000012084F880002420C4F884002068056834
:1046F000026822F001020260826822F060421143E7
:104700008160204603F0EAF9206805602020C4F8A3
:104710008400002084F88000B0BD000070470000D5
:1047200010B5B0B10446D0F8840028B9002084F850
:104730008000204600F026F82420C4F88400206879
:10474000016821F001010160204603F035FB0128DA
:1047500001D1012010BDA06A10B1204603F0E8F994
:104760002068416821F490414160816821F02A016C
:104770008160016841F001010160204603F04CFABC
:1047800010BD000070B586B00446006843F6000115
:10479000C4F2010100268842CDE90466CDE9026633
:1047A000019601D006B070BD4FF4804000F0D6FEF7
:1047B0000220022500F048FEC020CDE901050120BD
:1047C000CDE903060720059040F20040C4F6000042
:1047D00001A9FDF7AFFC45F2505540F24440C2F24A
:1047E0000005C4F202000F211022802385E8470053
:1047F0002846C5E90436C5E906662E62FDF7C8FB02
:10480000002818BFFCF736FFA567AC6206B070BD84
:10481000B0B50446D0F8840020280BD100294FF011
:1048200001004AD0002A134608BFB0BD94F88000AA
:10483000012801D10220B0BD012084F880000025AC
:1048400021202165A4F85430A4F85630C4F88C50C7
:10485000C4F88400A06F00B347F6DD42C0F6000242
:1048600047F6215C47F6894E00F12C07C0F6000C94
:10487000C0F6000E87E80450226885632832FDF7F1
:10488000F5FB50B11020C4F88C00002084F88000A3
:104890002020C4F884000120B0BD206840210162BE
:1048A00084F88050206850E8020F216840F08000B2
:1048B00041E80202002AF5D10020B0BD7047000097
:1048C00070470000704700007047000080B5FDF79A
:1048D00013FD80BD7047000080B540F24460C2F215
:1048E00000000068804780BD80B5202000F066FE93
:1048F000FFF7F2FF80BD000080B500F00BF801204B
:1049000000F042FE80BD000080B5012000F074FE82
:1049100080BD000070B582B040F2C010C2F203004A
:1049200001F084FBA0B940F2C01440F24866C2F224
:10493000030401ADC2F200062046294601F084FBC3
:10494000019831688847204601F070FB0028F3D0B9
:1049500002B070BD80B5012000F06EFE80BD000089
:1049600080B500F071FE00F07FFE00F0E9FE40BF70
:1049700020BF00F041FF80BD80B500F0A1FD00F038
:1049800027FE00F02FFE2C20FEF7DEF82D20FEF78C
:10499000DBF880BD80B5082000F010FE43F65C0017
:1049A000C2F2000000688047082000F045FE80BD8C
:1049B00010B50446082000F033FE40B143F65C0019
:1049C000C2F200000460082000F020FE10BDA047E5
:1049D000082000F031FE10BD10B540F6044402205E
:1049E000C5F6000400F066FE28B12068800702D4F6
:1049F00000F030F810BD012000F05CFE28B1206806
:104A0000C00702D1FFF778FF10BD082000F052FE6A
:104A1000002808BF10BD2068000758BF00F050F8FC
:104A200010BD000080B5022000F0C8FD00F002F8C3
:104A300080BD000080B540F20000C2F20300C168F2
:104A400043F67C41C2F200010968C06800688847EB
:104A500080BD000080B500F005F8022000F094FD54
:104A600080BD000070B582B040F2C810C2F20300F1
:104A700001F0DCFAA0B940F2C81443F68046C2F255
:104A8000030401ADC2F200062046294601F0DCFA1B
:104A9000316801988847204601F0C8FA0028F3D011
:104AA00002B070BD80B5022000F0A6FD80BD000000
:104AB00080B5022000F0C0FD022000F0A7FD80BDFF
:104AC00080B500F005F8082000F05EFD80BD000014
:104AD000B0B582B040F2D810C2F2030001F0A6FADD
:104AE00080B940F2D814C2F2030401AD2046294631
:104AF00001F0AAFA019802F055FF204601F096FA5B
:104B00000028F3D002B0B0BD80B5082000F074FDDD
:104B100080BD000010B540F604440220C5F6000434
:104B200000F07EFD10B92068800306D5022000F059
:104B300077FD28B92068800302D4FFF773FF10BD0A
:104B4000082000F06DFD28B92068000302D4FFF7AB
:104B500021FF10BD202000F063FD002818BF10BD0C
:104B60002068800258BFFFF7BFFE10BDF0B540F2CD
:104B7000385EC2F2000E0EF10C0600250024EFF3A1
:104B8000108CEFF3108772B63778BFB1671C1836F8
:104B90000135052C3C46F7D30624062C11D007EB33
:104BA00047050EEBC506012737738CF3108830617B
:104BB000002072734EF835300C70F0BD2F46062C75
:104BC000EDD18CF310880120F0BD0000F0B581B06C
:104BD00045F66827C2F2000739600C460968CA2208
:104BE0004A6253224A6242F60801C4F200010A688E
:104BF00045F2511342F020020A600A68C2F2000333
:104C000002F00702C2F104021A708B6840F240659C
:104C1000C3F306430133C2F200052B70896843F6E3
:104C200090466FF3DF310546481CC2F20006308023
:104C30004FF6C060CFF6FF7011FB0300D1B2C84041
:104C40004FF6FE71884243F67001C2F2000188BF40
:104C50004FF0FF30088000F069FD00F05DFD3DB1D0
:104C60002068C06840053ED50320FDF771FF3AE09B
:104C700040F2C850C2F200000121017040F2CC5055
:104C8000C2F200004FF0FF31016040F238516FF086
:104C90001700C2F2000100220B181830782883F8A0
:104CA0002420F9D140F23450C2F2000006210170F4
:104CB0002068816821F480618160C16861F490613D
:104CC00021F48061C16040F60C00C5F600004FF48D
:104CD000002101600320FDF72FFF3868006881681C
:104CE00041F4804181603868FF2100680022416200
:104CF00003200321FDF730FF0320FDF725FF01B05E
:104D0000F0BD000080B5904780BD00002DE9F04364
:104D100081B045F66827EFF31085EFF3108072B687
:104D2000C2F200073868CA21006840F23852416276
:104D3000532141628168C2F2000221F480618160E6
:104D400040F23451C2F200010C7804EB440102EB52
:104D5000C106337B022B17D140F2C850C2F20000CB
:104D600052F83180D6F81090007800B3707B01289B
:104D700022D12046012105F02DF885F310887168B5
:104D8000204600F031F81CE0C1684907FCD5C16835
:104D900061F4906121F48061C16040F60C00C5F6B9
:104DA00000004FF40021016085F3108814E002F048
:104DB000DDF885F310880FE085F31088204600F0B9
:104DC00063F83868CA210068424641625321416253
:104DD00048462146FFF796FF3868FF210068416288
:104DE00001B0BDE8F08300002DE9F04381B040F24E
:104DF0003852044600EB4000C2F2000202EBC0074A
:104E00003E4616F80C0F0D46022802D1204600F04F
:104E10003BF8EFF31089EFF3108072B60320FDF733
:104E20008FFE45F66828C2F20008D8F80000CA21B3
:104E300000684162532141620220307047F8085FE8
:104E4000204647F8045C08F043FA40F2345140F23F
:104E5000D052C2F20001C2F20002097812788A42EE
:104E600003D13968081A386001E002F07FF8D8F8F9
:104E70000000FF21006841620320FDF765FE89F311
:104E8000108801B0BDE8F08370B50446EFF31085DB
:104E9000EFF3108072B60320FDF752FE45F6682648
:104EA000C2F200063068CA210068416253214162A3
:104EB00040F2385104EB4400C2F2000101EBC000A3
:104EC000007B02283BD12046002104F083FF40F202
:104ED0003450C2F200000078062827D142F60800BC
:104EE000C4F200000068400505D53068006800BFC6
:104EF000C1684907FCD430680068816821F480618A
:104F0000816000BFC1684907FCD5C16861F4906148
:104F100021F48061C16040F60C00C5F600004FF43A
:104F2000002101600320FDF707FE08E040F2D051A8
:104F3000C2F200010978814218BF02F017F8306808
:104F4000FF21006841620320FDF7FEFD85F3108814
:104F500070BD0000FEE7000000688169890744BF5A
:104F6000002181628169C90718BF7047816941F0DA
:104F70000101816170470000F0B581B0044600680E
:104F800015468369DA0602D4002001B0F0BD0E4652
:104F90004168890103D4416841F48041416020683F
:104FA0008169890611D4771C04E000BF20688169FB
:104FB00089060AD4002FF9D0FDF78AF94FF02001B5
:104FC0009EB1401BB042F1D90FE01021C1612021F8
:104FD000C1612046FFF7C0FF20684EF6000241681D
:104FE000CFF60062114041600421606C08436064A8
:104FF000202084F84100002084F8420084F840001A
:10500000012001B0F0BD000010B50068DDF808C057
:10501000D0F804E06FF39F2149F6004419432EEACB
:105020005C5ECFF6004441EA024104EA0E0441EA24
:105030000C012143416010BD2DE9F04381B0814650
:10504000006880690840401AB0FA80F04009904238
:105050002BD1DDF8208015460E461F465C1C09E06A
:10506000D9F8000080693040801BB0FA80F0400918
:10507000A8421AD1002CF3D0FDF72AF91FB1A0EBFA
:105080000800B842ECD9D9F8440040F02000C9F833
:105090004400202089F84100002089F8420089F866
:1050A0004000012001B0BDE8F083002001B0BDE860
:1050B000F083000070B515460E46044620688069EE
:1050C000400718D4204631462A46FFF755FFA0B9BD
:1050D00020688169890612D4FDF7FAF816B1401BE1
:1050E000B042EBD9606C40F020006064202084F86E
:1050F000410000201AE0002070BD012070BD8169D0
:10510000490704D5218D00291CBF002070BD202136
:10511000C16142684EF60003CFF600631A40426058
:105120000020606484F8411084F8420084F8400054
:10513000012070BD70B515460E4604462068806992
:10514000800619D4204631462A46FFF715FFA8B934
:10515000FDF7BEF816B1401BB042EFD9606C40F0CD
:1051600020006064202084F84100002084F8420080
:1051700084F84000012070BD002070BD012070BD8A
:10518000F0B581B0044600688069800725D41546D3
:105190000E464F1C04E000BF2068806980071CD4C5
:1051A000204631462A46FFF7E7FE98B9002FF3D094
:1051B000FDF78EF816B1401BB042EDD9606C40F09F
:1051C00020006064202084F84100002084F8420020
:1051D00084F84000012001B0F0BD002001B0F0BD16
:1051E0007047000080B5FFF7F7FB80BD80B5FFF783
:1051F00091FC80BD002101604FF03F1141603F21D3
:105200008160704742F2A17C42F2A5730021C0F692
:10521000000CC0F6000300BF00EB8102013106293B
:10522000C2F804C0D361F7D17047000080B500F028
:1052300061FA00F067FA80BD80B500F005FE00F06D
:1052400015FE00F00BFE80BD10B5002A08BF10BD92
:1052500002394FF0370C4FF0000E00BF0CEB10740A
:10526000B0F1204F4FEA107338BF03F1300401F85A
:10527000024F0001013A81F801E0EFD110BD0000BA
:105280007047000081684FF6C072C5F6FF7211408A
:105290008160704781684FF6C072C7F6FF72114097
:1052A000013181607047000081684FF6C072C6F618
:1052B000FF72114001F180518160704740F2083067
:1052C000C5F20400006800F0E070704700EB810058
:1052D000006E00F0F84070478068C0F3C00070476F
:1052E000C06C00F0C000B0FA80F0400970470000C8
:1052F0008068C0F340707047806800F0010070471C
:105300008068C0F300707047C06800F00300704709
:105310008068C0F380007047C06800F44060B0FA55
:1053200080F0400970470000C1F3012300EB8300C7
:10533000D0F830C001F01F011F238B40C2F38462FC
:105340002CEA030302FA01F11943016370470000DC
:1053500081684FF6C072C7F6FF7211400431816058
:1053600070470000C1F3406300EB8300D0F814C025
:10537000C1F3045107238B402CEA030302FA01F125
:10538000194341617047000080B54FF6FF7ECB4363
:10539000D0F8B0C0C0F2070E02F0180263EA0E03A4
:1053A0002EFA02F203EA0C0311401943C0F8B010C0
:1053B00080BD000040F20831C5F204010A6822F401
:1053C0007C1210430860704740F20831C5F20401B6
:1053D0000A6822F0E07210430860704700EB810019
:1053E000D0F860C04FF20001C0F2FF3102F0F84285
:1053F00001EA0C011A43114341F000410166704774
:1054000000EB8100016E21F0004101667047000051
:1054100081B04821C5F600010A6802430A600968A4
:1054200008400090009801B07047000081B04C2106
:10543000C5F600010A6802430A6009680840009046
:10544000009801B07047000081B04C21C5F6000102
:105450000A6802430A60096808400090009801B099
:105460007047000081B04C20C5F60000016841F093
:1054700001010160006800F001000090009801B097
:105480007047000081B05020C5F60000016841F46B
:1054900080110160006800F480100090009801B055
:1054A0007047000081B05021C5F600010A68024330
:1054B0000A60096808400090009801B07047000039
:1054C00081B05020C5F60000016841F480110160F0
:1054D000006800F480100090009801B07047000050
:1054E00081B05821C5F600010A6802430A600968C4
:1054F00008400090009801B07047000081B058202B
:10550000C5F60000016841F080610160006800F0AC
:1055100080600090009801B0704700003820C5F608
:105520000000016841F00041016070473820C5F675
:105530000000016821F00041016070473C20C5F681
:105540000000016841F02001016070473C20C5F671
:105550000000016821F020010160704781B06021E6
:10556000C5F600010A6802430A6009680840009015
:10557000009801B07047000040F60840C5F60000F2
:105580003F2101607047000040F60841C5F6000168
:105590000860704740F60440C5F60000016841F01D
:1055A0003F0101607047000040F60440C5F600006E
:1055B000016841F47C1101607047000040F604412D
:1055C000C5F600010A6842EA004008607047000022
:1055D00040F60040C5F60000016841F0010101609D
:1055E0007047000040F60040C5F60000016841F435
:1055F000803101607047000040F60441C5F60001AB
:105600000A6822EA000008607047000040F6044182
:10561000C5F600010A6822EA0040086070470000F1
:1056200040F60C41C5F6000109680140081AB0FABD
:1056300080F040097047000040F608410004C5F6BC
:10564000000108607047000081B040F25010C5F6BC
:105650000000016841F480110160006800F48010CE
:105660000090009801B0704740F6D400C5F60000E5
:10567000016841F4007101607047000040F6184075
:10568000C5F600003F2101607047000040F614405D
:10569000C5F60000016841F03F010160704700005D
:1056A00040F61440C5F60000016841F47C11016029
:1056B0007047000040F61C41C5F600010968014032
:1056C000081AB0FA80F040097047000040F28040AC
:1056D000C5F600000168042262F302010160704710
:1056E00040F20811C5F600010A6822F0F0021043EA
:1056F0000860704740F68000C5F600000168002190
:105700000160704740F69000C5F60000016801F0A6
:10571000500101607047000040F68000C5F60000AF
:10572000016841F4002101607047000040F600006C
:10573000C5F60000016841F40021016070470000D7
:1057400040F62000C5F60000016841F400710160D8
:105750007047000047F28450C1F6FF700078704730
:1057600047F28450C1F6FF700068000A70470000DD
:1057700047F28050C1F6FF700068704741F28041E7
:10578000C5F6000151F8200040F20041C8F20001C6
:10579000401A18BF0120704741F20041C5F60001D0
:1057A0004FF4806241F82020704700004EF6105000
:1057B000CEF20000016841F0040101607047000072
:1057C0004EF61050CEF20000016821F00401016095
:1057D000704700004EF61050CEF20000016821F034
:1057E000040101607047000040F21840C5F6000057
:1057F0001F2101607047000040F20C40C5F6000018
:10580000016841F4004101607047000040F28840A7
:10581000C5F600000068C0F3C030704740F2884011
:10582000C5F600000068C0F38020704740F20041D8
:10583000C5F600010A6822F00702104308607047AD
:105840009020C5F60000016841F4004101607047F6
:105850009020C5F60000016841F480310160704776
:105860009020C5F60000016841F480310160704766
:1058700040F20810C5F6000000680001C0B2704791
:105880000820C5F60000006800F0F0007047000036
:105890000820C5F60000006800F4E06070470000D2
:1058A0000820C5F60000006800F460507047000052
:1058B0008821C5F600010968014040EA114070479F
:1058C0008820C5F60000006800F4406070470000C2
:1058D0009020C5F60000006800F44070704700009A
:1058E0000820C5F60000006800F00C0070470000BA
:1058F0000820C5F60000006800F00C0070470000AA
:105900008820C5F60000006800F003007047000022
:105910004FF0B040016821F4803101607047000011
:105920004FF0B040016841F48031016070470000E1
:105930004FF0B0400068C0F3005070474FF0B040E7
:105940000068C0F3404070479C214CF6FE22C5F62B
:105950000001CCF6FE220A600A6822F47C5242EA78
:1059600000200860704700009820C5F6000001681C
:1059700021F00101016070479820C5F60000016820
:1059800041F00101016070479820C5F600000068F1
:10599000C0F34000704700004FF0B040016821F4B0
:1059A00080710160704700004FF0B040016841F421
:1059B00080710160704700004FF0B040016841F411
:1059C00080710160704700004FF0B0400068C0F384
:1059D000802070474FF0B0400068C0F380207047CF
:1059E0000421C5F600010A6822F0FE4242EA006086
:1059F0000860704740F20810C5F600000068C0F368
:105A0000404070470820C5F600000068C0F3004021
:105A1000704700009420C5F600000068C0F3806065
:105A2000704700000820C5F600000068C0F3404041
:105A3000704700000820C5F600000068C0F38040F1
:105A4000704700009420C5F600000068C0F30070A5
:105A50007047000040F20810C5F600000068C0F36F
:105A6000004070479020C5F60000016821F0010158
:105A7000016070479020C5F60000016821F0040124
:105A8000016070479020C5F60000016841F00101F7
:105A9000016070479020C5F60000016841F00401E4
:105AA000016070479020C5F60000006800F001001A
:105AB000704700009020C5F600000068C0F3400069
:105AC000704700009020C5F600000068C0F3400059
:105AD000704700009020C5F60000016821F0180111
