:020000040800F2
:10000000880B0020FD010008E53D00087D2D00085B
:10001000E13D0008F108000841560008000000001A
:100020000000000000000000000000001147000870
:10003000E50900080000000035400008E547000819
:10004000170200081702000817020008C142000842
:10005000170200081702000817020008170200081C
:1000600017020008170200081702000859090008C3
:1000700017020008170200081702000817020008FC
:1000800017020008170200081702000817020008EC
:1000900017020008170200081702000817020008DC
:1000A0001702000869490008170200081702000833
:1000B00017020008170200081702000817020008BC
:1000C00017020008170200081702000817020008AC
:1000D000170200081702000817020008170200089C
:1000E000170200081702000817020008170200088C
:1000F000852D00088D2D0008F52600081702000840
:10010000170200081702000817020008170200086B
:10011000170200081702000817020008170200085B
:10012000170200081702000817020008170200084B
:1001300017020008170200081702000800F002F872
:1001400000F04CF80AA090E8000C82448344AAF125
:100150000107DA4501D100F041F8AFF2090EBAE823
:100160000F0013F0010F18BFFB1A43F001031847EB
:10017000B4630000E46300000A4410F8014B14F07B
:100180000F0508BF10F8015B240908BF10F8014BE8
:100190006D1E05D010F8013B6D1E01F8013BF9D131
:1001A000641E03D0641E01F8015BFBD19142E4D3CD
:1001B000704700000023002400250026103A28BFC5
:1001C00078C1FBD8520728BF30C148BF0B607047C9
:1001D0001FB506F054F81FBD10B510BD00F071F941
:1001E0001146FFF7F5FF05F089FF00F08FF903B422
:1001F000FFF7F2FF03BC00F097F9000009488047C1
:1002000009480047FEE7FEE7FEE7FEE7FEE7FEE7F8
:10021000FEE7FEE7FEE7FEE704480549054A064B10
:1002200070470000E54800083D01000888050020EF
:10023000880B0020880700208807002053EA020C62
:1002400000F069802DE9F04B4FF00006002B1FBF36
:10025000B3FA83F503FA05F424FA05F65E4012BFFB
:100260001643B2FA82F502FA05F4C5F120051EBF65
:1002700022FA05FC44EA0C04203556EA044C4FEA05
:10028000144418BF641C4FF000084FF0000990425E
:1002900071EB030C39D3002919BFB1FA81F701FAC8
:1002A00007F6B0FA80F700FA07F6C7F120071EBF7D
:1002B00020FA07FC46EA0C062037B6FBF4FCA7EB55
:1002C0000507103F07F01F0BCBF120062CFA06F6AE
:1002D0000CFA0BFB44BFB3460026202FA4BF5E469A
:1002E0004FF0000B5BEA060C08BF4FF0010B19EB57
:1002F0000B0948EB0608ABFB027C06FB02CC0BFBB0
:1003000003CCC01B71EB0C01C1E70B460246414612
:100310004846BDE8F08B13B5084318BF4FF0FF30D7
:100320000146AFF30080BDE81C407047032A40F24D
:10033000308010F0030C00F0158011F8013BBCF187
:10034000020F624498BF11F801CB00F8013B38BF9F
:1003500011F8013BA2F1040298BF00F801CB38BFAD
:1003600000F8013B11F0030300F05780083AC0F099
:10037000088051F8043B083A51F804CBA0E8081073
:10038000F5E7121D5CBF51F8043B40F8043BAFF3A6
:100390000080D20724BF11F8013B11F801CB48BF00
:1003A00011F8012B24BF00F8013B00F801CB48BF36
:1003B00000F8012B704702F0FF0343EA032242EAF0
:1003C000024200F05EB84FF0000200B513469446BA
:1003D0009646203922BFA0E80C50A0E80C50B1F19D
:1003E0002001BFF4F7AF090728BFA0E80C5048BFB1
:1003F0000CC05DF804EB890028BF40F8042B08BF4F
:10040000704748BF20F8022B11F0804F18BF00F84A
:10041000012B704770477047704710B5203AC0F005
:100420000B80B1E81850A0E81850B1E81850A0E8C7
:100430001850203ABFF4F5AF5FEA027C24BFB1E860
:100440001850A0E8185044BF18C918C0BDE81040A3
:100450005FEA827C24BF51F8043B40F8043B08BFAC
:100460007047D20728BF31F8023B48BF11F8012B73
:1004700028BF20F8023B48BF00F8012B70474FF01F
:1004800000020429C0F0128010F0030C3FF49DAF6D
:10049000CCF1040CBCF1020F18BF00F8012BA8BF6F
:1004A00020F8022BA1EB0C01FFF78FBF5FEAC17CA4
:1004B00024BF00F8012B00F8012B48BF00F8012BE6
:1004C0007047754600F02CF8AE4605006946534665
:1004D00020F00700854618B020B5FFF79DFEBDE867
:1004E00020404FF000064FF000074FF000084FF09B
:1004F000000BAC46ACE8C009ACE8C009ACE8C009E8
:10050000ACE8C00921F007018D46704710B50446DC
:10051000AFF300802046BDE81040FFF768BE000042
:1005200000487047A001002001491820ABBEFEE73B
:10053000260002007047000010B588B046F29820EF
:10054000C0F6000090E80E5044690191018B807E56
:1005500002920393CDF810C0CDF814E00694ADF8E4
:100560001C108DF81E0004F063FB01A803F0D6FFF9
:1005700008B010BD7047000080B5FFF7DDFF00F048
:1005800005F80120002104F0ABFE80BD70B58CB0F1
:1005900046F2B420C0F6000090E84E00D0E90454C2
:1005A000D0E906CE8DE84E00D0E90812D0E90A0362
:1005B000CDE90454CDE90A03CDE90812CDE906CE10
:1005C00000F080F902200121012404F089FE45F6A3
:1005D000B172C0F6000202200021002504F0B4FE32
:1005E000684603F08BFF002818BF00F019FA00F0EE
:1005F000DFF804F01DF840F22806C2F200064FF6BC
:10060000FF7040F26962F082C0F600020120002112
:1006100086F8805004F098FE062005F007FB03F0F2
:1006200031FC40F2896306F18101C0F6000300202D
:10063000002202F0AFF944F28D7306F18201C0F698
:1006400000030020002202F0A5F940F2AC00C2F243
:100650000000047040F2AE00C2F200003583047066
:1006600000F018F80CB070BD10B540F22804C2F2CA
:10067000000494F88000052808BF10BD05F06AF951
:10068000002084F8800010BD80B50120002104F016
:100690003DFF80BDF0B587B040F2AC00C2F2000073
:1006A000047840F2AE0040F22807C2F20000C2F225
:1006B0000007057897F8810002F0FAFA0120397EE8
:1006C00046F21C5287F88000002607F11900C0F698
:1006D00000020823002CCDE90063CDE90221CDE919
:1006E000040618BF8024002D18BFA0250020214635
:1006F0002A460023069605F0B7F840F21401C2F22C
:1007000000010E2005F046F908B107B0F0BD97F8DA
:1007100081004EF24601C0F2010102F079FA07B001
:10072000F0BD00007047000080B5012806D0002809
:1007300018BF80BD032004F0F3FD80BD032004F04A
:1007400015FE80BD10B504464068083003F0B2FFC6
:10075000002818BF0120207010BD00007047000065
:1007600070470000B0B502F04FFD0446013013D0D1
:1007700002F042FD054602F039FD40F2E521C2F2E9
:100780000001220A8870280A4A7008712A0C08465B
:100790000C70CD704A71B0BD002003F04FFB46F2E3
:1007A000A431C0F60001002808BF0846B0BD000013
:1007B0002DE9F04188B00025ADF8185005F07EFB1A
:1007C000FFF7D0FF044600200621224605F07CFA00
:1007D000607940F21401C2F200010872207946F2F9
:1007E00054324872E078C0F600028872A0784FF068
:1007F0001008C87260780873207848731820102198
:1008000005F062FA46F24432C0F6000208201021D8
:10081000082605F059FA01201821012705F02CFAC5
:1008200005F0B0F907A80DF11A0400900DF11E03B0
:10083000012000210722019404F094FFBDF81E005E
:10084000BDF81C101DA400220723009405F0BAF97E
:10085000BDF81E00BDF81A1006AC00220223009459
:1008600005F0B0F900200221022205F0EBFA40F277
:100870002804C2F200040120277005F045F84BF26D
:1008800007200121C0F20100C1F20801A060C4F8F4
:100890000210CDE9025001200121012200236770DE
:1008A000CDE90068049504F0A3FFA078002818BFE4
:1008B00004F038FF08B0BDE8F08100BF503250535B
:1008C0005256310080B582B040F22800C2F20300D7
:1008D000009040F22970C0F60000019040F245708F
:1008E000C0F60000694605F05FFA02B080BD000066
:1008F000FEE700007047000080B580B140F2FC00C8
:10090000C2F200000121017040F24020C2F200005A
:100910000168002908BF80BD0120884780BD40F2E2
:100920004020C2F20000016809B10020884740F26F
:10093000FC00C2F200000021017080BD80B50020E3
:1009400003F07CFA002808BF80BD807902F040FDEA
:1009500080BD00007047000080B540F27430C2F2E4
:10096000000000F00DFB80BD10B501686FF00703BB
:100970004CF6CD42D0F844C053FA81F3CCF6CC42C9
:10098000A3FB022E2CF0030240F2084C40F61C039D
:10099000C4F2020CC4F20203614503F1640438BFDF
:1009A0000CF57E731A44CEF3041301219940C0E97B
:1009B0001224016510BD0000416840F6001201F0EC
:1009C0003F010139C4F2020202EB810302F1400C43
:1009D00001F00301012202FA01F1C0E9153CC165F1
:1009E00070470000704700007047000080B500BFEE
:1009F000032002F00FFC0028FAD1042002F00AFCC8
:100A000040B902F04FFC10B902F054FC20B10420B0
:100A100002F00EFC03F0BCFE032002F009FC80BDD6
:100A2000EFF3108072B600BFFEE7000080B504202F
:100A300002F0FEFB032002F0EDFB0028FAD102F0E9
:100A400093FC032002F0F4FB80BD0000F0B581B000
:100A500004460020009094F85000012802D10220A2
:100A600001B0F0BD20680D46012184F8501002F05D
:100A7000EDF928B1606D40F0200060650120AFE025
:100A80002068D5E9002102F0E5F9206802F0DEF9DE
:100A900021680646084602F0C9F9304340F09B80C1
:100AA00020682968AA6802F0E9F9206829696B6959
:100AB000C268042940F088804FF6FF770021C0F219
:100AC000070702F0ADF9216806460846002102F04A
:100AD000A7F9720390FAA0F12A68B1FA81F108BF70
:100AE000C0F3846192FAA2F0B0FA80F0530308BF19
:100AF000C2F38460814203D12068002102F00CFA25
:100B00002068012102F08CF921680646084601217F
:100B100002F086F990FAA0F12A68B1FA81F13E421A
:100B200008BFC0F3846192FAA2F0B0FA80F03A42B2
:100B300008BFC2F38460814203D12068012102F022
:100B4000EBF92068022102F06BF92168064608469D
:100B5000022102F065F990FAA0F12A68B1FA81F158
:100B60003E4208BFC0F3846192FAA2F0B0FA80F06E
:100B70003A4208BFC2F38460814203D12068022157
:100B800002F0CAF92068032102F04AF921680646FA
:100B90000846032102F044F990FAA0F12A68B1FA5C
:100BA00081F13E4208BFC0F3846192FAA2F0B0FA2C
:100BB00080F03A4208BFC2F3846081420BD12068C2
:100BC000032102F0A9F906E0062707EA92072A683E
:100BD000BB4002F08FF9206802F030F928B1002004
:100BE000002184F8501001B0F0BD20682968EA683F
:100BF00002F056F9E8680021C4F27F01884242D130
:100C0000D5F800E04FF080619EFAAEF27346B2FA7A
:100C100082F76FF3DF433A462068002B08BF4FEAA4
:100C20009E62561C01EB826106F01E0C01F0F84238
:100C300006F01F010126BCF1090F06FA01F60DD8D6
:100C400042EA0601002B08BF4FEA9E677A1C02F0B9
:100C50001F0202EB420241EA025111E0002B08BFE1
:100C60004FEA9E67791C01F01F01002301EB41014F
:100C7000CFF6206303EB01513243114341F0007181
:100C8000AA6802F0FBF8688848F20801084218D008
:100C90000027C5F2040702F0BBF80646384602F00A
:100CA000CDF800287FF4E6AE296830020BD400208E
:100CB000CCF25270814206D12068B8421FD0002089
:100CC0008EE700208CE7F00109D40020CCF68430B8
:100CD000814204D12068B84233D0002080E77002FE
:100CE0004FF000003FF57CAF0122C8F200029142B4
:100CF0007FF476AF2068B84228D0002070E746F431
:100D0000000002F0EDF840F20C00C2F200000068B2
:100D100042F663518009C0F23E51A0FB01018809EF
:100D200000EB40000C2101EB80000090009858B1CE
:100D3000009801380090009800284FF00000F7D18B
:100D40004EE746F0807003E0002049E746F480005B
:100D500002F0C6F8002043E770B582B004460020D8
:100D60000190CCB1606D30B9204600F0C1F8002090
:100D7000A06584F85000206802F05CF810B120688B
:100D800002F034F8206802F05DF838B1206802F013
:100D900059F8F0B1002525E00125A5E0206802F012
:100DA0002DF840F20C00C2F20000006842F66351D8
:100DB0008009C0F23E51A0FB01018809022101EB2C
:100DC000400000BF019001980028DFD00198013851
:100DD000F8E7606D012540F010006065A06D40F0FF
:100DE0000100A065206802F031F8616D01F010018A
:100DF0000843606D03D040F01000012573E020F43B
:100E0000817002306065206802F018F840B9002057
:100E1000C5F2040002F012F810B9606802F056F84A
:100E2000607E616B41EA4030D4E90221084394F8C6
:100E300020101043012940EA014106D1606A0022D6
:100E4000CFF6FE7202EB40400143A06A28B100F4E5
:100E50007070E26A084340EA020120684CF207031E
:100E6000C268CFF6F0731A401143C16001F0EEFF83
:100E700021680646084601F0D9FF304324D194F892
:100E80003000217E4200206842EA8131C26844F28B
:100E900002039A431143C16094F838200169012A82
:100EA0000FD140F2FD7204F13C0621EA020C4CCE57
:100EB000A16C42EA0C021A433243114341F0010192
:100EC00001E021F00101016120682169026B012923
:100ED00022F00F0102D1E269013A11430163606D12
:100EE000012161F301006065284602B070BD000079
:100EF00070B586B0044600680021C5F204010026E2
:100F00008842CDE90466CDE90266019601D006B0BB
:100F100070BD4FF4005002F023F80420042502F0C5
:100F20001FF80320CDE9020640F60000C4F60000D9
:100F300001A9019500F006F940F274350820C2F2CB
:100F40000005C4F2020005214FF4807385E84300D8
:100F500005F1140080224FF4806C4FF0200E80E8E1
:100F600008502846C5E903622E6200F05FF80028A9
:100F700018BFFFF755FDE564AC6206B070BD000018
:100F8000B0B50268D0E910C4DCF80050136804F072
:100F90001C0E590712D5042101FA0EF414EA0501BA
:100FA0000CD01168890603D4116821F00401116086
:100FB000CCF80440016BB9B38847B0BD990718D588
:100FC000022101FA0EF414EA050112D01168890613
:100FD00006D4116821F00A011160012180F8251062
:100FE000CCF80440C16A002280F82420E1B188478F
:100FF000B0BD190758BFB0BD082101FA0EF1294054
:1010000012D0116821F00E011160012101FA0EF2D7
:10101000CCF80420C16380F82510416B0022002920
:1010200080F8242018BF8847B0BD0000002804BF06
:10103000012070472DE9F04140F2000C0446C4F253
:10104000020C00684FF6F8330CF58162CBF6FD73A5
:10105000904238BF03F5806303EB00024CF6CD43AA
:10106000CCF6CC43A2FB032304F1080E0CF58061FF
:101070006FF003059EE804413CBF0021C4F2020169
:1010800005EA9303C4E91013022184F825100168CE
:1010900047F6F073994304F114071143E8CF41EA8E
:1010A000080141EA0E0119432943314339430160E4
:1010B0002046FFF759FCA06804F14803B0F5804FC3
:1010C00004BF0020606060680ECB00F03F0701386D
:1010D00003280F60536009D82046FFF76DFC04F128
:1010E000540207CA002303604A6003E00020C4E9F9
:1010F0001500E06500200121E06384F8251084F8E4
:101100002400BDE8F0810000B0B5054600F0E8F825
:10111000691C044603D000F0E9F8054401E04FF0F3
:10112000FF3500F0DDF8001BA84228BFB0BD00BFAE
:1011300002F092F830BF00F0D3F8001BA842F7D3BA
:10114000B0BD00002DE9F04F82B00D68002D00F019
:10115000BD8000F1384341F200074FEAB322C4F6E4
:10116000000701920722B8424FF000044FF0000739
:101170004FF0010608BF0422009209E00D68043711
:1011800035FA06F206F1010604F1020400F09E8031
:10119000A6F10108012202FA08FA15EA0A0BEDD0BD
:1011A000D1F804C00CF00309A9F1010EBEF1010F42
:1011B00012D8D0F808E00322CB68A2402EEA02023F
:1011C000A3401A4382604268CCF3001322EA0A0269
:1011D00003FA08F31A434260B9F1030F22D0032245
:1011E000D0F80CC002FA04F38A682CEA0303A24088
:1011F0001A43B9F1020FC26014D16FF0030202EA80
:1012000058020244D2F820C007F01C030F25D1F881
:10121000109005FA03FE2CEA0E0C09FA03F343EAD8
:101220000C031362026803234D68A3409A4305F040
:101230000303A3401A4315F4403F02609ED028F0F8
:10124000030E40F20808C4F201085EF808C007F077
:101250000C050F2202FA05F3019A2CEA030C009BFD
:10126000042A38BF1346AB4043EA0C034EF808305B
:1012700040F6000EC5F6000EDEF880C04B684CEA62
:101280000B05DA0358BF2CEA0B05CEF88050DEF8C8
:1012900084C09A034CEA0B0558BF2CEA0B05CEF824
:1012A0008450DEF800C0DA024CEA0B0558BF2CEA85
:1012B0000B05CEF80050DEF804209B0242EA0B0535
:1012C00058BF22EA0B05CEF8045057E702B0BDE83C
:1012D000F08F00001823002A08BF2823C150704750
:1012E00040F28050C2F200000068704740F22200D5
:1012F000C2F200000078704740F22400C2F2000001
:10130000006870477047000080B541F20051C5F693
:101310000001C8680A6882430A604860FFF7F2FF6C
:1013200080BD000090F84120202A03D190F8402091
:10133000012A01D102207047242280F8412002684E
:10134000136823F001031360136823F480531360C0
:10135000136819431160116841F0010111602021E7
:1013600080F84110002180F84010084670470000C6
:1013700090F84120202A03D190F84020012A01D181
:1013800002207047242280F841200268136823F06D
:1013900001031360136823F4706343EA01211160B1
:1013A000116841F001011160202180F841100021F5
:1013B00080F8401008467047002804BF012070479D
:1013C00010B5044690F8410028B9002084F8400088
:1013D000204600F043F8242084F8410094E80310EC
:1013E000E368026821F0706122F00102026001618D
:1013F0008168012B21F4004181604FF4044108BF52
:101400004FF4004141EA0C01022B816004BF4FF40C
:1014100000614160416804F1100C41F0007141F439
:1014200000414160C16821F40041C1609CE80E1098
:10143000114341EA0321C160216A41EA0C010160C4
:10144000016841F00101016000202021606484F8FE
:101450004110206384F8420010BD000010B586B032
:10146000006845F20041C4F2000100248842CDE941
:101470000444CDE90244019401D006B010BD02201D
:1014800001F06EFD4FF4407001901220CDE902048E
:101490000420059040F20040C4F6000001A9049425
:1014A000FFF750FE4FF4001001F096FD06B010BD9E
:1014B000002804BF01207047B0B5044690F83800FA
:1014C00010B9204600F014F840F60045C5F60005B6
:1014D000284601F05FFC286840F001102860204693
:1014E00001F060FC00200121606384F83810B0BD79
:1014F00080B5006840F60041C5F60001884218BF7B
:1015000080BD4FF4801001F049FD80BD70470000A0
:101510007047000040F2220040F28051C2F2000009
:10152000C2F2000100780A681044086070470000A9
:1015300080B544F20000C5F60000016841F48071F6
:101540000160032000F064F8002000F009F8002892
:101550001CBF012080BD00F02DF8002080BD0000E0
:10156000B0B540F22205C2F200052978F1B1044677
:1015700000F04AFA29784FF47A72B2FBF1F1B0FB2D
:10158000F1F000F029FE0F2C4FF001050CD858B9EE
:101590004FF0FF3021460022002500F029F840F2EC
:1015A0002400C2F2000004602846B0BD0125284690
:1015B000B0BD000080B54FF4002001F0EFFC2E20FC
:1015C0000021002200F014F82E2000F009F880BD60
:1015D00080B504F039F880BD80B504F045F880BDD1
:1015E00080B504F055F880BD80B504F069F880BD81
:1015F00070B514460D46064604F05AF829462246B0
:1016000002F0F2FB0146304604F06AF870BD0000BB
:1016100080B504F077F880BD40F20040C5F60000C8
:10162000006800F4C060704740F20040C5F600005A
:10163000016841F48071016070470000F0B581B02D
:1016400004460078400602D4002500261EE0206BE8
:101650006FF0010101EBB051022913D34FEAB050F2
:10166000002842D0012847D10C20C5F600000168AF
:10167000002641F4803101603EB9206B02F0CAF8C7
:10168000002503E00026002EF7D0354660780007DD
:101690003AD501F061FE216C884234D00546FFF74F
:1016A000C3FF6DB30C25C5F60005D5F8847001F0B5
:1016B00023FE02F01BF8206C27F440710843C5F8A4
:1016C000840001F033FF01281DD1FFF709FE054614
:1016D00041F2893701F03AFF012814D0FFF700FEEC
:1016E000401BB842F6D303250EE0201D02F0A4FCF7
:1016F0000646002EC9D1C0E70126002EC5D1BCE7A1
:10170000206C02F07DF835462078C00702D0A06931
:1017100002F0BAF82078800702D5E06902F052F8AA
:101720002078C00602D5A06A02F03EF82078800634
:1017300002D5E06A02F038F82078400702D5206A26
:1017400002F022F82078000702D5606A02F01CF847
:101750006078C00717D0606B02F0A0F8606BB0F142
:10176000806F0AD0B0F1006F0DD10C20C5F60000DB
:10177000016841F08071016005E0201D02F09AFCD3
:10178000002818BF05466078800713D5A06BB0F11C
:10179000004F18BFB0F1804F21D102F027F8A06BA5
:1017A000B0F1C05F06D10C20C5F60000016841F021
:1017B000807101606078400722D5E06B01F09EFFE8
:1017C000E06BB0F1805F15D0B0F1005F18D10C2054
:1017D000C5F60000016841F48031016010E0002886
:1017E000DBD020F08056002002F000F8304601F0F7
:1017F000B9FFD4E7201D02F09BFC002818BF054666
:101800006078C00602D5606C01F0E6FF6078800663
:1018100005D5E06C02F01AF8A06C02F00DF828462D
:1018200001B0F0BD2DE9F041002800F0C48044F281
:101830000007C5F60007054638680C4600F00700AB
:10184000884214D2386820F0070020433860FFF740
:1018500047FD0646386800F00700A04207D0FFF7B2
:101860003FFD801B0228F5D90320BDE8F0812878D0
:1018700080072CD4287880063CD4287840064BD4A6
:10188000287840075AD42878000769D42878C007F8
:1018900040F08880386800F00700A04275D93868A9
:1018A00020F0070020433860FFF71AFD054600BF0F
:1018B000386800F00700A04267D0FFF711FD401B19
:1018C00002284FF0030088BFBDE8F081F0E7A86868
:1018D00001F02AFFFFF704FD064600BF01F0D6FD28
:1018E0000028C7D1FFF7FCFC801B0228F6D9032093
:1018F000BDE8F081686901F03FFCFFF7F1FC0646A6
:1019000001F0BCFD0028B8D1FFF7EAFC801B0228DB
:10191000F6D90320BDE8F081A86901F0F9FEFFF7D0
:10192000DFFC064601F0DAFD0028A9D1FFF7D8FC5C
:10193000801B0228F6D90320BDE8F081E86801F099
:10194000FDFEFFF7CDFC064601F0B0FD00289AD160
:10195000FFF7C6FC801B0228F6D90320BDE8F08102
:101960002869C00001F0F4FEFFF7BAFC064600BF8C
:1019700001F0A4FD00287FF489AFFFF7B1FC801BC4
:101980000228F5D90320BDE8F08100F03DF840F2CF
:101990000C01C2F200010860FFF7AEFCFFF7E0FDAA
:1019A000BDE8F081686848B1032822D0022825D11B
:1019B00001F008FD30B90120BDE8F08101F02AFEF8
:1019C0000028F8D0686801F055FFFFF789FC06464B
:1019D00041F2883801F0D0FC6968B0EB810F3FF428
:1019E00059AFFFF77DFC801B40454FF00300F1D954
:1019F000D6E701F06DFE0028E4D1DCE701F02EFD12
:101A00000028DFD1D7E7000010B500F037F8044612
:101A100001F082FC3C2101EA900046F2E421C0F68C
:101A200000010858B4FBF0F010BD000010B5FFF73E
:101A3000EBFF044601F078FC46F22431C0F30220AB
:101A4000C0F6000151F8200000F01F0024FA00F059
:101A500010BD000010B5FFF7D7FF044601F06CFC85
:101A600046F22431C0F3C220C0F6000151F8200034
:101A700000F01F0024FA00F010BD0000B0B542F2E3
:101A80000044C0F2F40401F077FC08280ED00428CA
:101A900041D0B0B901F0B4FD3C2101EA900046F21A
:101AA0006431C0F600010C582046B0BD01F084FC42
:101AB00044F60001C0F2E811012808BF214608469B
:101AC000B0BD01F0EDFD022815D0032809D101F0C9
:101AD00073FC44F60001C0F2E811012818BF0C465F
:101AE00009E001F08DFD3C2101EA900046F26431ED
:101AF000C0F600010C5801F0DBFD444301F0C8FDC5
:101B0000012505EB1010B4FBF0F401F0D9FD05EB55
:101B10005070B4FBF0F42046B0BD00002DE9F04356
:101B200081B0F8B10446007880066CD501F024FC41
:101B3000054601F0B5FDBDB10C2D08BF012813D03D
:101B4000E069002843D001F053FDFFF7C9FB0546CB
:101B500001F060FD00284BD1FFF7C2FB401B0228BB
:101B6000F6D941E001209FE201F054FD08B1E0699F
:101B700048B3656A01F044FD0146606A8D4209D9A7
:101B800002F05CFBF8B9606A01F054FD206A01F0D4
:101B900047FD08E001F04EFD206A01F041FD606A5A
:101BA00002F04CFB78B9FFF72FFF40F22401C2F29C
:101BB000000140F20C020968C2F2000210600846FF
:101BC000FFF7CEFCD0B14FF00109002017E001F083
:101BD00007FDFFF785FB054601F01CFD70B1FFF71F
:101BE0007FFB401B0228F7D94FF00309002006E0D5
:101BF000606A01F01FFD206A01F012FD012000283B
:101C0000484600F051822078C0071CD001F0B4FB98
:101C1000054601F045FD082D0AD00C2D08BF03280C
:101C200006D06068B0F5803F3AD101F0BDFB39E0E5
:101C300001F0C8FB10B16068002851D001200028D5
:101C4000484600F031822078800769D501F094FB86
:101C5000054601F025FD042D18D00C2D08BF0228E3
:101C600014D0E068002843D001F0EAFBFFF738FB0E
:101C7000054600BF01F0F2FB68B9FFF731FB401BDE
:101C80000228F7D94FF00309002745E001F0E6FBF1
:101C900008B1E06840B3206901F0E6FB01273BE0B2
:101CA00001F07AFB6568FFF71BFB002D054612D09B
:101CB00001F088FB0028C1D1FFF712FB401B64280C
:101CC000F6D94FF003090020B9E700BFFFF708FB82
:101CD000401B6428F5D801F075FB0028F6D1ADE76C
:101CE0004FF001090020AAE74FF00109002713E097
:101CF00001F096FBFFF7F4FA054600BF01F0AEFBDA
:101D0000B0FA80F14FEA511730B1FFF7E9FA401B02
:101D10000328F3D34FF00309002F484600F0C48195
:101D2000206810F0180F6CD0616999B110F01000A4
:101D300020D101F023FCFFF7D3FA054601F026FC81
:101D400000283CD1FFF7CCFA401B02284FF00300DB
:101D5000F4D9A9E101F022FCFFF7C2FA054600BF61
:101D600001F02CFCD8B1FFF7BBFA401B0328F7D9D0
:101D7000032099E101F00AFC002800F0E98001F05D
:101D800015FCFFF7ADFA054601F018FC28BBFFF77C
:101D9000A7FA401B03284FF00300F5D984E101F0B6
:101DA000E5FBFFF79DFA054601F0F0FB48B3FFF7AE
:101DB00097FA401B02284FF00300F5D974E101F0B7
:101DC000EDFB00BF01F0FAFBD8B1FFF789FA401B29
:101DD00003284FF00300F5D966E1A06901F0F6FB96
:101DE00001F0C4FBFFF77CFA054600BF01F0CEFB13
:101DF00038B1FFF775FA401B02284FF00300F5D900
:101E000052E1207840074AD42078400668D4E06A3E
:101E100000287AD040F20C08C5F6000801F0ACFAB0
:101E2000D8F80010E26A022A71D1226B01F0030394
:101E3000934274D1626B01F0700393426FD1A26B35
:101E4000C1F3062393426AD1E26B01F47813934203
:101E500065D1226C01F06063934260D1626C01F045
:101E6000604191425BD14FF0B0473868800100F18A
:101E70001F8101F005FCD8F8000040F08050C8F840
:101E80000000FFF72DFA0446386810F0007540F0A6
:101E90000481FFF725FA001B0228F5D9FBE00C2787
:101EA000C5F60007D7F8F403C00511D4FFF7BCFB53
:101EB000FFF716FA054600BFD7F8F403C00507D4AC
:101EC000FFF70EFA401B02284FF00300F4D9EBE0B5
:101ED000A068052861D0012864D101F017FB65E0F6
:101EE000A06A002847D001F08BFAFFF7F9F9054600
:101EF00001F08EFA00287FF48AAFFFF7F1F9401B5A
:101F000002284FF00300F3D9CEE00020CCE00C28EB
:101F10004FF0010770D100254FF00109C0E00C28F7
:101F200066D04FF0B0473868400161D401F0A0FBA3
:101F3000FFF7D6F905463868800140F18180FFF748
:101F4000CFF9401B0228F6D94FF003090025A7E07E
:101F500001F014FBFFF7C4F9054600BF01F016FBC2
:101F600000287FF40CAFFFF7BBF9401B02284FF0AD
:101F70000300F3D998E001F03BFAFFF7B1F9054609
:101F800001F046FA00283FF442AFFFF7A9F9401BE1
:101F900002284FF00300F3D986E001F0BFFA01F008
:101FA000B5FA03E001F0A2FA01F0A8FAA568FFF77C
:101FB00097F9002D054641F2883714D001F0BEFA9A
:101FC00000287FF421AFFFF78BF9401BB8424FF098
:101FD0000300F3D968E000BFFFF782F9401BB84265
:101FE0004FF0030060D801F0A9FA0028F4D10BE704
:101FF0004FF00109002553E001F03AFBD8F800004A
:102000004FF6FF7120F00300C8F80000D8F8000078
:10201000CEF6FE610840C8F80000FFF761F90446FB
:102020004FF0B046306810F0007087EA506537D046
:10203000FFF756F9001B0228F4D94FF003092FE0EF
:10204000D8F8000048F28C01C1F2C11104F1300748
:1020500008408ECFD4E910650843104340EA0320BE
:10206000384330432843C8F8000001F009FBD8F892
:10207000000040F08050C8F80000FFF731F9044636
:102080004FF0B046306810F0007506D1FFF728F920
:10209000001B0228F6D94FF00309002D18BF0125B7
:1020A0004846002D18BF0020C0B201B0BDE8F08343
:1020B0000125F5E710B5D8B1044690F8210028B9FC
:1020C000002084F82000204600F054F8022084F814
:1020D00021002068CA21416253214162204602F05A
:1020E000D5F8216830B1FF204862042084F821002F
:1020F000012010BD88684FF6BF72CFF68F72104076
:10210000886004F1040E23699EE801501843A36916
:102110008A68184310438860C1F810E0086940EAF3
:102120000C400861C86820F08000C860C86C20F0CE
:102130000300C864E0696269CB6C10431843C8644B
:10214000886880060ED4204600F024F850B120683C
:10215000FF214162042084F82100002084F820003F
:10216000012010BD2068FF214162012084F8210078
:10217000002010BD80B5006842F60001C4F20001E5
:10218000884218BF80BD01F0A7F84FF4806000F0CE
:1021900023FF80BDB0B504460068C16821F0A001EE
:1021A000C160FFF79DF805462068C068800607D427
:1021B000FFF796F8401BB0F57A7FF5D90320B0BD44
:1021C0000020B0BD4EF21000CEF20000016841F0D8
:1021D000020101607047000080B502F0EBFA80BD9B
:1021E0004EF21000CEF20000016821F00201016001
:1021F0007047000070470000704700007047000003
:1022000010B590F83C20012A4FF0020227D001239C
:1022100080F83C3080F83D20026842F6004E53685A
:10222000D2F808C0C4F2010E724503D14C6823F401
:10223000700323430C6823F07003234372455360FB
:1022400002D0B2F1804F04D189682CF08003194389
:1022500091600121002280F83D1080F83C2010465A
:1022600010BD0000002804BF0120704710B50446CF
:1022700090F83D0028B9002084F83C00204600F08A
:1022800023F8022084F83D002068211D02F074FB31
:10229000012084F8480084F83E0084F83F0084F868
:1022A000400084F8410084F8420084F8430084F838
:1022B000440084F8450084F8460084F8470084F818
:1022C0003D00002010BD000080B5006842F60041CE
:1022D000C4F20101884218BF80BD4FF4006000F0D5
:1022E00089FE192000210022FFF782F91920FFF74B
:1022F00077F980BD10B5044690F83C0001284FF0F6
:10230000020008BF10BD012284F83C2084F83D0083
:10231000206888238268CFF6CE731A4082600A68EC
:102320003F2A14DD5F2A18DD602A28D0B2F5005F4D
:102330002DD0702A40D1D1E9012CCB68614602F042
:102340005FFB2068816841F07701816034E01F2ADB
:102350000FDC92B1102A10D02EE0402A23D0502A50
:102360002AD14B68CA68194602F062FB20685021E6
:1023700020E0202A01D0302A1ED111461AE04B68F5
:10238000CA68194602F066FB2068602112E0D1E9B4
:10239000012CCB68614602F033FB2068816841F470
:1023A0008041816008E04B68CA68194602F040FB32
:1023B0002068402102F030FB012084F83D0000201D
:1023C00084F83C0010BD00007047000010B50446C2
:1023D00000680169890744BFC1685FEA817140D420
:1023E00020680169490744BFC1685FEA417144D46C
:1023F00020680169090744BFC1685FEA017149D4D7
:1024000020680169C90644BFC1685FEAC1614DD453
:1024100020680169C9071CBFC1685FEAC17152D158
:1024200020680169090644BFC1685FEA016151D4AF
:1024300020680169C90544BFC1685FEA016150D4E1
:1024400020680169490644BFC1685FEA41614FD411
:1024500020680169890644BFC1685FEA81614ED482
:1024600010BD6FF0020101610121217780698007B1
:102470004CD02046FFF7A8FF4EE06FF00401016149
:1024800002212177806910F4407F48D02046FFF771
:102490009BFF4AE06FF00801016104212177C069C8
:1024A000800745D02046FFF78FFF47E06FF010010F
:1024B000016108212177C06910F4407F41D0204696
:1024C000FFF782FF43E06FF001010161204600F059
:1024D00045F8A5E76FF0800101612046FFF78CFE0B
:1024E000A6E76FF4807101612046FFF783FEA7E73E
:1024F0006FF040010161204600F032F8A8E76FF06C
:10250000200101612046FFF779FE10BD204600F052
:1025100021F8204600F020F80020207760E72046D0
:1025200000F018F8204600F017F8002020775FE749
:10253000204600F00FF8204600F00EF8002020772B
:102540005EE7204600F006F8204600F005F800207F
:1025500020775DE77047000070470000704700007B
:102560007047000090F88010012904BF02207047D6
:102570002421C0F8841002681168136823F0010355
:10258000136021F000530021416613602022C0F83F
:10259000842080F88010084670470000B0B50446DB
:1025A00090F88000012804BF0220B0BD012084F80B
:1025B00080002420C4F8840020680568026822F0A6
:1025C00001020260826822F060621143816020464D
:1025D00002F0C8FB206805602020C4F884000020B9
:1025E00084F88000B0BD0000B0B5044690F88000CB
:1025F000012804BF0220B0BD012084F880002420FF
:10260000C4F8840020680568026822F001020260B4
:10261000826822F0604211438160204602F0A2FBF2
:10262000206805602020C4F88400002084F8800021
:10263000B0BD000010B5B0B10446D0F8840028B990
:10264000002084F88000204600F026F82420C4F8FA
:1026500084002068016821F001010160204602F039
:1026600057FC012801D1012010BDA06A10B12046FD
:1026700002F0A2FB2068416821F49041416081682A
:1026800021F02A018160016841F0010101602046CA
:1026900002F006FC10BD0000B0B586B0006843F63D
:1026A0000001C4F2010100248842CDE90444CDE9CF
:1026B0000244019401D006B0B0BD4FF4804000F058
:1026C00099FC0220022500F04BFCC020CDE9010559
:1026D0000120CDE903040720059040F20040C4F634
:1026E000000001A9FEF72EFD06B0B0BD7047000046
:1026F0007047000080B5FEF707FE80BD7047000000
:1027000080B540F20420C2F200000068804780BD1E
:1027100080B5202000F09EFCFFF7F2FF80BD000096
:1027200080B500F00BF8012000F07AFC80BD0000BD
:1027300080B5012000F0ACFC80BD000070B582B017
:1027400040F2C010C2F2030001F0E8F8A0B940F274
:10275000C01440F20826C2F2030401ADC2F2000622
:102760002046294601F0E8F801983168884720465C
:1027700001F0D4F80028F3D002B070BD80B501207C
:1027800000F0A6FC80BD000080B500F0A9FC00F0C0
:10279000B7FC00F021FD40BF20BF00F079FD80BDF7
:1027A00080B500F009FC00F05FFC00F067FC2C2015
:1027B000FEF716FF2D20FEF713FF80BD80B5082021
:1027C00000F048FC40F21820C2F200000068804788
:1027D000082000F07DFC80BD10B50446082000F004
:1027E0006BFC40B140F21820C2F2000004600820E7
:1027F00000F058FC10BDA047082000F069FC10BD97
:1028000010B540F604440220C5F6000400F09EFC1A
:1028100028B12068800702D400F030F810BD0120F4
:1028200000F094FC28B12068C00702D1FFF778FFC0
:1028300010BD082000F08AFC002808BF10BD2068E9
:10284000000758BF00F050F810BD000080B502200E
:1028500000F000FC00F002F880BD000080B540F2FE
:102860000000C2F20300C16840F23421C2F200014C
:102870000968C0680068884780BD000080B500F026
:1028800005F8022000F0CCFB80BD000070B582B0DE
:1028900040F2C810C2F2030001F040F8A0B940F2C3
:1028A000C81440F23826C2F2030401ADC2F2000699
:1028B0002046294601F040F83168019888472046B3
:1028C00001F02CF80028F3D002B070BD80B50220D2
:1028D00000F0DEFB80BD000080B5022000F0F8FBB8
:1028E000022000F0DFFB80BD80B500F005F8082075
:1028F00000F096FB80BD0000B0B582B040F2D81069
:10290000C2F2030001F00AF880B940F2D814C2F212
:10291000030401AD2046294601F00EF8019802F0AB
:1029200085F9204600F0FAFF0028F3D002B0B0BDD0
:1029300080B5082000F0ACFB80BD000010B540F66B
:1029400004440220C5F6000400F0B6FB10B920686C
:10295000800306D5022000F0AFFB28B92068800371
:1029600002D4FFF773FF10BD082000F0A5FB28B9C3
:102970002068000302D4FFF721FF10BD202000F0E3
:102980009BFB002818BF10BD2068800258BFFFF7CE
:10299000BFFE10BDF0B540F2041EC2F2000E0EF1F3
:1029A0000C0600250024EFF3108CEFF3108772B6AD
:1029B0003778BFB1671C18360135052C3C46F7D374
:1029C0000624062C11D007EB47050EEBC5060127A0
:1029D00037738CF310883061002072734EF83530F5
:1029E0000C70F0BD2F46062CEDD18CF31088012021
:1029F000F0BD0000F0B581B040F25C57C2F20007B4
:102A000039600C460968CA224A6253224A6242F679
:102A10000801C4F200010A6840F2E42342F02002F7
:102A20000A600A68C2F2000302F00702C2F104025F
:102A30001A708B6840F20025C3F306430133C2F2DB
:102A400000052B70896840F248266FF3DF31054698
:102A5000481CC2F2000630804FF6C060CFF6FF700F
:102A600011FB0300D1B2C8404FF6FE71884240F21C
:102A70002C21C2F2000188BF4FF0FF30088000F027
:102A8000A1FB00F095FB3DB12068C06840053ED534
:102A90000320FEF7A9FD3AE040F29410C2F20000D4
:102AA0000121017040F29810C2F200004FF0FF3196
:102AB000016040F204116FF01700C2F20001002221
:102AC0000B181830782883F82420F9D140F2001030
:102AD000C2F20000062101702068816821F4806143
:102AE0008160C16861F4906121F48061C16040F649
:102AF0000C00C5F600004FF4002101600320FEF732
:102B000067FD38680068816841F4804181603868F9
:102B1000FF2100680022416203200321FEF768FDC7
:102B20000320FEF75DFD01B0F0BD000080B59047C9
:102B300080BD00002DE9F04381B040F25C57EFF317
:102B40001085EFF3108072B6C2F200073868CA2110
:102B5000006840F204124162532141628168C2F26E
:102B6000000221F48061816040F20011C2F2000194
:102B70000C7804EB440102EBC106337B022B17D126
:102B800040F29410C2F2000052F83180D6F8109052
:102B9000007800B3707B012822D12046012102F089
:102BA00009FD85F310887168204600F031F81CE0BB
:102BB000C1684907FCD5C16861F4906121F4806166
:102BC000C16040F60C00C5F600004FF40021016022
:102BD00085F3108814E001F083FB85F310880FE083
:102BE00085F31088204600F063F83868CA21006831
:102BF000424641625321416248462146FFF796FF13
:102C00003868FF210068416201B0BDE8F083000030
:102C10002DE9F04381B040F20412044600EB40007D
:102C2000C2F2000202EBC0073E4616F80C0F0D463A
:102C3000022802D1204600F03BF8EFF31089EFF3B1
:102C4000108072B60320FEF7C7FC40F25C58C2F257
:102C50000008D8F80000CA2100684162532141628F
:102C60000220307047F8085F204647F8045C03F004
:102C7000E3F940F2001140F29C12C2F20001C2F2EC
:102C80000002097812788A4203D13968081A38603C
:102C900001E001F025FBD8F80000FF210068416247
:102CA0000320FEF79DFC89F3108801B0BDE8F08396
:102CB00070B50446EFF31085EFF3108072B6032071
:102CC000FEF78AFC40F25C56C2F200063068CA2168
:102CD000006841625321416240F2041104EB440058
:102CE000C2F2000101EBC000007B02283BD120466C
:102CF000002102F05FFC40F20010C2F200000078F8
:102D0000062827D142F60800C4F2000000684005FA
:102D100005D53068006800BFC1684907FCD4306839
:102D20000068816821F48061816000BFC168490743
:102D3000FCD5C16861F4906121F48061C16040F606
:102D40000C00C5F600004FF4002101600320FEF7DF
:102D50003FFC08E040F29C11C2F200010978814278
:102D600018BF01F0BDFA3068FF21006841620320FE
:102D7000FEF736FC85F3108870BD0000FEE700000A
:102D80007047000080B5FFF73BFD80BD80B5FFF7C1
:102D9000D5FD80BD002101604FF03F1141603F2112
:102DA0008160704741F20D5C41F211530021C0F681
:102DB000000CC0F6000300BF00EB810201310629C0
:102DC000C2F804C0D361F7D17047000080B500F0AD
:102DD000DDF900F0E3F980BD80B500F063FD00F09F
:102DE00073FD00F069FD80BD7047000081684FF6FB
:102DF000C072C5F6FF7211408160704781684FF65E
:102E0000C072C6F6FF72114001F1805181607047B7
:102E100040F20830C5F20400006800F0E07070472E
:102E200000EB8100006E00F0F84070478068C0F34E
:102E3000C00070478068C0F340707047806800F041
:102E4000010070478068C0F3007070478068C0F36D
:102E500080007047C1F3012300EB8300D0F830C03D
:102E600001F01F011F238B40C2F384622CEA03038D
:102E700002FA01F11943016370470000C1F3406396
:102E800000EB8300D0F814C0C1F3045107238B403A
:102E90002CEA030302FA01F1194341617047000073
:102EA00080B54FF6FF7ECB43D0F8B0C0C0F2070E1E
:102EB00002F0180263EA0E032EFA02F203EA0C0390
:102EC00011401943C0F8B01080BD000040F2083135
:102ED000C5F204010A6822F47C12104308607047AE
:102EE00040F20831C5F204010A6822F0E072104392
:102EF0000860704700EB8100D0F860C04FF200011D
:102F0000C0F2FF3102F0F84201EA0C011A4311430A
:102F100041F000410166704700EB8100016E21F035
:102F2000004101667047000081B04821C5F60001EC
:102F30000A6802430A60096808400090009801B0DE
:102F40007047000081B04C21C5F600010A680243B9
:102F50000A60096808400090009801B070470000BE
:102F600081B04C21C5F600010A6802430A60096875
:102F700008400090009801B07047000081B05020D8
:102F8000C5F60000016841F480110160006800F49A
:102F900080100090009801B07047000081B050216F
:102FA000C5F600010A6802430A60096808400090FB
:102FB000009801B07047000081B05020C5F60000B5
:102FC000016841F480110160006800F480100090F5
:102FD000009801B07047000081B05821C5F600018B
:102FE0000A6802430A60096808400090009801B02E
:102FF0007047000081B06021C5F600010A680243F5
:103000000A60096808400090009801B0704700000D
:1030100040F60840C5F600003F21016070470000FF
:1030200040F60841C5F600010860704740F60440CC
:10303000C5F60000016841F03F01016070470000E3
:1030400040F60440C5F60000016841F47C110160BF
:103050007047000040F60441C5F600010A6842EAE4
:10306000004008607047000040F60040C5F60000D0
:10307000016841F0010101607047000040F6004026
:10308000C5F60000016841F480310160704700001E
:1030900040F60441C5F600010A6822EA0000086013
:1030A0007047000040F60441C5F600010A6822EAB4
:1030B000004008607047000040F60C41C5F6000172
:1030C00009680140081AB0FA80F040097047000012
:1030D00040F608410004C5F6000108607047000092
:1030E00081B040F25010C5F60000016841F4801133
:1030F0000160006800F480100090009801B07047F3
:1031000040F6D400C5F60000016841F4007101608A
:103110007047000040F61840C5F600003F210160EE
:103120007047000040F61440C5F60000016841F009
:103130003F0101607047000040F61440C5F60000F2
:10314000016841F47C1101607047000040F61C41A9
:10315000C5F6000109680140081AB0FA80F040097C
:103160007047000040F28040C5F60000016804226C
:1031700062F302010160704740F20811C5F60001D8
:103180000A6822F0F00210430860704740F68000A1
:10319000C5F60000016800210160704740F690000C
:1031A000C5F60000016801F05001016070470000A1
:1031B00040F68000C5F60000016841F4002101607E
:1031C0007047000040F60000C5F60000016841F4B9
:1031D000002101607047000040F62000C5F60000A5
:1031E000016841F4007101607047000047F28450AB
:1031F000C1F6FF700078704747F28450C1F6FF7047
:103200000068000A7047000047F28050C1F6FF7066
:103210000068704741F28041C5F6000151F8200076
:1032200040F20041C8F20001401A18BF0120704767
:1032300041F20041C5F600014FF4806241F82020C0
:10324000704700004EF61050CEF20000016841F0C9
:1032500004010160704700004EF61050CEF20000ED
:10326000016821F004010160704700004EF6105023
:10327000CEF20000016821F00401016070470000F7
:1032800040F21840C5F600001F21016070470000A1
:1032900040F20C40C5F60000016841F400410160B5
:1032A0007047000040F28840C5F600000068C0F397
:1032B000C030704740F28840C5F600000068C0F397
:1032C0008020704740F20041C5F600010A6822F0F4
:1032D00007021043086070479020C5F6000001689F
:1032E00041F40041016070479020C5F6000001687C
:1032F00041F48031016070479020C5F600000168FC
:1033000041F480310160704740F20810C5F60000BA
:1033100000680001C0B270470820C5F600000068D0
:1033200000F0F000704700000820C5F600000068BB
:1033300000F4E060704700000820C5F60000006857
:1033400000F46050704700008820C5F60000006857
:1033500000F44060704700009020C5F6000000684F
:1033600000F44070704700000820C5F600000068B7
:1033700000F00C00704700000820C5F6000000684F
:1033800000F00C00704700008820C5F600000068BF
:1033900000F00300704700004FF0B040016821F4D6
:1033A00080310160704700004FF0B040016841F487
:1033B00080310160704700004FF0B0400068C0F3FA
:1033C000005070474FF0B0400068C0F34040704775
:1033D0009C214CF6FE22C5F60001CCF6FE220A60C6
:1033E0000A6822F47C5242EA00200860704700001C
:1033F0009820C5F60000016821F0010101607047C6
:103400009820C5F60000016841F001010160704795
:103410009820C5F600000068C0F340007047000027
:103420004FF0B040016821F48071016070470000E6
:103430004FF0B040016841F48071016070470000B6
:103440004FF0B040016841F48071016070470000A6
:103450004FF0B0400068C0F3802070474FF0B0409C
:103460000068C0F3802070470421C5F600010A6897
:1034700022F0FE4242EA00600860704740F2081005
:10348000C5F600000068C0F3404070470820C5F64C
:1034900000000068C0F30040704700009420C5F6AB
:1034A00000000068C0F38060704700000820C5F687
:1034B00000000068C0F34040704700000820C5F6D7
:1034C00000000068C0F38040704700009420C5F6FB
:1034D00000000068C0F300707047000040F2081060
:1034E000C5F600000068C0F3004070479020C5F6A4
:1034F0000000016821F00101016070479020C5F6CD
:103500000000016821F00401016070479020C5F6B9
:103510000000016841F00101016070479020C5F68C
:103520000000016841F00401016070479020C5F679
:103530000000006800F00100704700009020C5F610
:1035400000000068C0F34000704700009020C5F6FE
:1035500000000068C0F34000704700009020C5F6EE
:103560000000016821F01801016070479420C5F641
:103570000000016821F00101016070479420C5F648
:103580000000016841F00101016070479420C5F618
:1035900000000068C0F34000704700009420C5F6AA
:1035A0000000016821F00401016070479420C5F615
:1035B0000000016841F00401016070479420C5F6E5
:1035C00000000068C0F3C000704700009421C5F6F9
:1035D00000010A6822F4706242EA00200860704725
:1035E0004FF0B040016821F0010101607047000018
:1035F0004FF0B040016841F00101016070470000E8
:103600004FF0B040006800F0F000B02828BFB020B4
:10361000704700004FF0B0400068C0F340007047B2
:103620000421C5F600010A6822F47F4242EA002024
:10363000086070474FF0B0410A6822F0F002104372
:10364000086070474FF0B040016821F08061016070
:10365000704700004FF0B040016841F080610160A8
:10366000704700004FF0B0400068C0F3C060704782
:103670004FF0B040016821F0807101607047000098
:103680004FF0B040016841F0807101607047000068
:103690000C20C5F60000006800F0700070470000C4
:1036A0000C20C5F60000006800F003007047000021
:1036B0000C20C5F600000068C0F30620704700002B
:1036C0000C20C5F60000006800F060407047000064
:1036D0004FF0B0400068C0F3406070479020C5F6DE
:1036E0000000016821F48031016070479020C5F628
:1036F0000000016821F48031016070478821C5F61F
:1037000000010A6822F04052104308607047000030
:1037100040F20811C5F600010A6822F00F0242EAE1
:1037200010100860704700000821C5F600010A6803
:1037300022F0F00210430860704700000821C5F62F
:1037400000010A6822F4E06210430860704700003C
:103750000821C5F600010A6822F46052104308608F
:10376000704700008821C5F600010A6822F0406217
:1037700010430860704700000820C5F6000001688B
:1037800041F40041016070478821C5F600010A68D4
:103790006FF47F2363EA10131A4000F47F4042EA7B
:1037A00000100860704700008821C5F600010A6813
:1037B0004FF6FF7363EA00031A4042EA00400860D4
:1037C000704700008821C5F600010A6822F44062B3
:1037D00010430860704700009421C5F600010A6894
:1037E00022F4404210430860704700008821C5F66B
:1037F00000010A6822F04042104308607047000050
:103800009021C5F600010A6822F440721043086056
:10381000704700008821C5F600010A6822F44002C2
:1038200010430860704700002420C5F600000168BE
:1038300021F00301016070472421C5F600010A68E8
:1038400022F0030210430860704700002421C5F6EF
:1038500000010A6822F0300210430860704700003F
:103860000820C5F600000168012262F30101016031
:10387000704700000821C5F600010A6822F0030223
:1038800010430860704700008821C5F600010A68EF
:1038900022F00302104308607047000080B5FFF774
:1038A00061FF80BD42F62400C4F20000CA2101601D
:1038B000532101607047000042F62400C4F200006A
:1038C000FF2101607047000042F60800C4F20000CA
:1038D000016821F00701016070470000006040604E
:1038E00070470000EFF31082EFF3108372B60368A5
:1038F00048600B6001600B68596082F31088704764
:10390000EFF31082EFF3108372B6436808604B60E8
:1039100041604B68196082F310887047EFF31081A3
:10392000EFF3108272B6026881F31088101AB0FAB1
:1039300080F040097047000010B5EFF31084EFF3FA
:10394000108272B602680A60006800F003F884F31F
:10395000108810BDEFF31081EFF3108272B6026889
:1039600043681A600068436081F310887047000064
:1039700080B540F2041C01EB4102C2F2000C0CEBDA
:10398000C20212F815EFBEF1060F1EBF0EEB4E037A
:103990000CEBC303187500EB40030CEBC30383F877
:1039A00015E01975107080BD80B540F20012C2F2AA
:1039B000000212788A4210D140F2041300EB400258
:1039C000C2F2000303EBC202517501EB410103EBAC
:1039D000C10101F11402107080BD40F2041C01EB22
:1039E0004102C2F2000C0CEBC20212F814EF0EEB13
:1039F0004E030CEBC303587500EB40030CEBC30301
:103A0000597583F814E0107080BD00007047000005
:103A100070470000B0B586B040F2EC2000210024D1
:103A2000C2F20000C5F20401C0E900144FF4807135
:103A30000122042501830221CDE90444CDE9024499
:103A4000CDE90044C0E90244C0E90425C16180F821
:103A50002040C0E90A4480F83040446380F8384090
:103A6000FDF77AF918BB0820C0F6904000900620B8
:103A7000CDE901007F20CDE9030540F2EC20C2F240
:103A8000000069460594FCF7E1FF80B90120C8F207
:103A9000000000900C20019040F2EC20C2F20000E7
:103AA0006946FCF7D3FF002804BF06B0B0BDFCF7A1
:103AB000B7FF000080B544F21000C5F600004FF4D7
:103AC0000041016000F072FCFCF738FF80BD00008F
:103AD00080B500F043FF00F039FF40F25C41C2F2D4
:103AE00000010020FEF786FF02F01CF980BD0000F7
:103AF00080B54FF0FF3001F049FC80BD80B5042057
:103B0000FFF712FA0120FFF70FFA0B200021002225
:103B1000FDF76EFD0B20FDF763FD80BD2DE9F04F35
:103B200085B0002704200497CDE90277CDE900771E
:103B3000FFF708FA8020FFF705FA0220FFF702FAE4
:103B400001204FF0010BFFF7FDF910204FF0100A94
:103B5000FFF7F8F908200825FFF7F4F940F600040C
:103B6000C4F600042046032100224FF00309FDF7AC
:103B7000B1FBA4F580663046232100224FF02308D4
:103B8000FDF7A8FBCDE900596D4604F5A050294684
:103B90000297FDF7D7FA20462946CDE9009BCDE9EB
:103BA0000277FDF7CFFA41F66840CDE900092046DB
:103BB00029460297FDF7C6FA48F2FF70CDE90009E1
:103BC0004FF0904029460297FDF7BCFA204629465F
:103BD000CDE900A70297FDF7B5FA4FF61440CDE9FD
:103BE0000009304629460297FDF7ACFA30462946CF
:103BF000CDE9008BCDE90277FDF7A4FA04F500606A
:103C00002946CDE900A90297FDF79CFA4FF4C05070
:103C100000900220CDE901070A2004904FF0904067
:103C200029460397FDF78EFA04F580602946CDE911
:103C300000970297FDF786FA05B0BDE8F08F000007
:103C400080B540F2D43045F20041C2F20000C4F227
:103C5000000147F6BB420023C0F270024FF0010C96
:103C600080E80E10C0E90433C0E906330362FDF7B3
:103C7000A3FB88B940F2D430C2F200000021FDF766
:103C800051FB48B940F2D430C2F200000021FDF7E8
:103C90006FFB002808BF80BDFCF7C2FE80B540F274
:103CA000204040F60041C2F20000C5F6000101606C
:103CB000FDF7FEFB002808BF80BDFCF7B1FE000049
:103CC00080B540F25C4042F60001C2F20000C4F24E
:103CD000000100220F2347F6FF7C80E80E10C0E9A8
:103CE0000422C0E90622FEF7E5F9002808BF80BDDE
:103CF000FCF796FE80B588B040F2804042F6004264
:103D00000021C2F20000C4F2010247F6FF434FF463
:103D10007A7C0791CDE90511CDE90311CDE90111B7
:103D2000C0E90023C0E9021CC0E904118161FEF76B
:103D300099FAC8B94FF48050049040F28040C2F222
:103D4000000004A9FEF7D6FA70B90020CDE9010001
:103D5000039040F28040C2F2000001A9FEF750FA41
:103D6000002804BF08B080BDFCF75AFE80B540F2C1
:103D7000CC4043F6000CC2F20000C4F2010C4FF438
:103D8000E1324FF0805300214FF00C0EC0E900C229
:103D9000C0E90231C0E9041EC0E90611C0E90811FA
:103DA0008162FEF747FCC0B940F2CC40C2F200008D
:103DB0000021FEF719FC80B940F2CC40C2F20000AD
:103DC0000021FEF7EBFB40B940F2CC40C2F200000C
:103DD000FEF7C8FB002808BF80BDFCF721FE0000ED
:103DE000FEE70000FEE7000000F0070080F0070398
:103DF000042B28BF04234FF0FF3C03380CFA03F3D5
:103E000038BF0020994381400CFA00F022EA0000FC
:103E10000843704780B540F23C21C2F200010968B6
:103E200028B1002908BF80BD0120884780BD002936
:103E3000FCD00020884780BD7047000047F2000C8E
:103E4000C1F6FF7C0CF57E73DA799C45A3F108017D
:103E500002D082420B46F7D10831824218BF0021BE
:103E60000846704710B50446FCF760FA204610BDBE
:103E700010B51346CAB219460446FCF79CFA204610
:103E800010BD000070470000704700007047000040
:103E90002DE9F04F8BB043F6B570C0F6000000F08E
:103EA000D9FB4EF28F50CDF2B350079047F62E70EB
:103EB000C9F64A00089044F62A00CCF67A400990E8
:103EC0004FF6406040F2B0050DF11C080A90C2F2B6
:103ED000000502204146012208230095012601F039
:103EE000F3FD4FF6416029460A9031F8020B4EF679
:103EF000195942F2ED1B44F241570622CAF6826973
:103F0000C9F64C5BC8F622674FF00A0A00248DE818
:103F100054040591022142460223CDF81C90CDF8AD
:103F200020B00997049601F061FD4FF6426135F823
:103F3000040B0A9110218DE852040221424602230B
:103F4000CDE9079B09970496059501F04FFD0BB04D
:103F5000BDE8F08F80B5FEF743F9FCF747FDFFF7AA
:103F60008FF90320FFF7AEF9FFF76CF930BF80BD82
:103F700080B5FEF735F9FFF779F930BF80BD000055
:103F800080B5FEF72DF9FCF731FD0220FFF79AF915
:103F9000FFF758F930BF80BD80B5FEF713F980BD3B
:103FA00080B5FEF70FF980BD80B5FCF73FFDFEF749
:103FB00009F980BD10B584B04178FF2901D00024F3
:103FC0001AE0B0F8031040F60142914213D140F2DA
:103FD000B002C2F200029388B0F8071002338B429D
:103FE0000DD1407BC0071BD1012468468DF80040ED
:103FF000FFF74CFF00E00024204604B010BD5288BB
:1040000001328A4214D1C27A0D30032101906846F0
:104010008DF800108DF80820FFF738FF0024EBE73B
:1040200000208DF800006846FFF730FF0124E3E729
:104030000024E1E770470000F0B581B00446FFF7C7
:1040400001FBFDF74DF90546FFF70CFB064638B1BD
:10405000FDF746F9401B0328F6D303253EBB01E0DC
:10406000002526BB1027C5F600073868D4E90012E2
:1040700020F4FE4040EA01203860386820F47810CF
:1040800010433860FFF7E6FAFDF72AF9064600BF4D
:10409000FFF7E8FA012805D0FDF722F9801B032875
:1040A000F6D303251DB920693968084338602846CE
:1040B00001B0F0BDF0B581B00446FFF7C3FAFDF7DB
:1040C0000FF90546FFF7CEFA064638B1FDF708F9B5
:1040D000401B0328F6D303253EBB01E0002526BB89
:1040E0001027C5F600073868216820F4FE4040EA32
:1040F0000120A2683860386820F0606010433860A2
:10410000FFF7A8FAFDF7ECF8064600BFFFF7AAFA9A
:10411000012805D0FDF7E4F8801B0328F6D303251A
:104120001DB92069396808433860284601B0F0BDE0
:10413000F0B581B00446FFF785FAFDF7D1F80546E2
:10414000FFF790FA064638B1FDF7CAF8401B03287E
:10415000F6D303253EBB01E0002526BB1027C5F69C
:1041600000073868216820F4FE4040EA0120E26838
:104170003860386820F0604010433860FFF76AFA12
:10418000FDF7AEF8064600BFFFF76CFA012805D030
:10419000FDF7A6F8801B0328F6D303251DB9206977
:1041A000396808433860284601B0F0BD70B5B1F5F4
:1041B000007F09D100211DA252F8213083420ED286
:1041C00001310429F8D108E0002115A252F821306C
:1041D000834204D201310329F8D1002505E046F2DB
:1041E000EC40C0F6000050F8215044F20006C5F63D
:1041F0000006306820F0070028433060FDF770F8B3
:10420000044600BF306800F00700A84206D0FDF762
:1042100067F8001B0328F5D3032070BD002070BD94
:10422000060000000C00000010000000120000005A
:10423000240000003600000040000000B0B53C241F
:1042400046F2643204EA9001C0F600021144B0283C
:1042500088BF02F12C010D68FFF756F846F2E42101
:1042600004EA9000C0F6000108584DF68361B5FBE2
:10427000F0F0C4F21B31A0FB01018C0CFDF7CCF96E
:1042800001462046FFF792FFB0BD0000B0B50446DE
:104290000068C168490611D44FF0FF31C160FDF7D5
:1042A0001FF805462068C068400607D4FDF718F8D7
:1042B000401BB0F57A7FF5D90320B0BD0020B0BD1A
:1042C00080B5FEF737FC80BD42F62801C4F200013C
:1042D000086880B20A68034690B28342FAD17047F8
:1042E00070B542F60800C4F200000068400540F2D4
:1042F0005C50C2F2000004D501680968CA68520720
:10430000FCD4006840F204140068C2F20004816822
:1043100021F48061816040F20010C2F20000057853
:1043200005EB450004EBC000866800F0A1F886426A
:1043300001D200210BE040F22C21C2F200010A88D8
:104340000244964202D90988002201E0311A012272
:1043500040F29413C2F20003062D1A7010D000BF71
:1043600005EB450204EBC202134653F8086F864280
:1043700026BF1E68361A00261E60557D062DEFD119
:1043800088B200F029F870BD80B5FFF787F860B1FA
:10439000FFF79CF8002818BF80BDFDF745F9FDF731
:1043A00043F9FEF7A1FFFFF799F980BD80B5FFF74C
:1043B000EBFF00F001F880BD80B5FEF7DFFDFEF7F2
:1043C00027FEFEF7A7FEFEF73BFEFEF7B5FEFEF763
:1043D0002DFEFEF7A7FE80BDB0B5044601280BD028
:1043E0009CB9FFF771FF40F29811C2F2000108601A
:1043F0000320FDF7F9F8B0BD40F2E420C2F200005E
:104400000078012818BF013C00E0013C40F25C55F7
:10441000C2F2000528680068C1684907FCD5C16878
:1044200061F4906121F48061C16040F60C00C5F632
:1044300000004FF4002101600320FDF7C9F842F6A7
:104440001400C4F200000168C4EA01010160FFF732
:104450003BFF40F29811C2F2000108602868006832
:10446000816841F480618160AFF30080B0BD0000DD
:1044700010B540F29814C2F20004206801300DD04B
:10448000FFF722FF216881420BD240F24821C2F29D
:10449000000109882268081A104404E0002080B254
:1044A00010BD2168081A40F20021C2F2000140F25A
:1044B000E4220978C2F2000212784843D04080B268
:1044C00010BD00000021B0F5803F3CBF0121000479
:1044D0000901B0F1807F3CBF00020831B0F1805F7C
:1044E0003CBF0001043146F2FC42000FC0F600025E
:1044F000105C81F01F01081AC0B2704780B584B00B
:1045000000F10C020DF101034FF66640242101F089
:1045100043FE9DF80F0004B080BD000080B584B05C
:1045200000F10C020DF101034FF668400F2101F07C
:1045300033FE9DF80F0004B080BD0000B0B582B01E
:1045400004464078FF2824D03E2838D005286BD177
:10455000A08840F22804C2F20004E18A884202BF27
:104560000020E08284F88000FCF794F840F250309C
:10457000E28AC2F20000012101704280FFF784FC50
:1045800040F20040C4F6000002210022FCF7A2FE27
:104590004AE0B4F80300042846D140F20044C4F6CF
:1045A0000004204620210122FCF794FE0A20FCF79B
:1045B000ABFD204620210022FCF78CFE34E0E078A1
:1045C00001280DD00C282FD140F22800C2F20000A3
:1045D000C08A0DF107010DF1060201F0F9FB23E09D
:1045E00040F22805C2F2000595F88100FEF760FB55
:1045F00095F880000521042808BF0621B4F805209D
:1046000040F2503085F88010C2F200000021EA82AA
:1046100001704280FFF738FC40F20040C4F6000011
:1046200002210122FCF756FE012002B0B0BD0000BD
:1046300080B540F2C800C2F200000021017740F2CC
:10464000E800C2F20000017000F00EF880BD00002A
:104650007047000040F2C801C2F200010A7F41F831
:104660002200501C0877704780B5FCF75BF8FCF718
:1046700075F8FCF73FF9FCF76DF9FCF7B5F9FEF7B3
:1046800035F8FEF735F8FEF739F8FEF779FBFEF757
:10469000ABFB00F0DFFAFFF7BBF9FFF7F9FB00F027
:1046A000D1FFFFF7C9FBFCF75BF8FFF7AFF9FFF7A6
:1046B000CFFF80BD70B504464078FF2807D00020AA
:1046C000022820D008BB2046FFF738FF70BD2079B4
:1046D0004FF44061B1EB002F4FF00000F0D140F2F9
:1046E000C805C2F20005297F0029E9D0002600BFD5
:1046F00055F82610204688470028E1D1297F013649
:104700008E42F5D3DCE7002070BD012070BD0000B3
:104710007047000080B50B4640F2C401C2F20001B0
:104720000968A1F80900CB7201F10C0011461A4684
:10473000FBF7FCFD40F25430C2F200000269002099
:104740000021904780BD000070B582B040F2242067
:10475000C2F20000FFF7E2F8B0B940F2242440F2C0
:104760000006C2F2000401ADC2F20306204629464B
:10477000FFF7E2F8306901990069FFF7C1F82046B8
:10478000FFF7CCF80028F1D002B070BD70470000F0
:1047900080B5FEF74DFE00BFFEF75AFE0028FBD0A5
:1047A000FFF75EF8FFF740F8FEF7DEFD0428FBD1C7
:1047B00080BD0000B0B501380024B4EB106F1CBF01
:1047C0000120B0BD4EF21005CEF2000568604FF03A
:1047D000FF300F2100F084FF0720AC6028602046E6
:1047E000B0BD000080B5FCF795FE80BDF0B5AFB060
:1047F0001DAC20464821FBF7E6FD002502A850210C
:104800001C95CDE91A55CDE91855CDE91655FBF79C
:10481000DAFD0C26C5F600063068012720F070008E
:104820003060306867F301003060FCF7FDFEFEF792
:1048300095FED6F8F40367F34A20C6F8F403D6F8D9
:10484000F40300F4C060019001982F201D904FF4F4
:104850008030CDE91E074FF48070209040202190D9
:1048600060202690052022902046249725952895A3
:10487000FDF754F998BB6F2016900220CDE917057B
:1048800016A80121CDE91955CDE91B55FCF7CAFF42
:1048900028BB43F605400290182003904FF40030E7
:1048A00004904FF0007005904FF0005006904FF0CC
:1048B0008050079011904FF40070002112904FF437
:1048C00080404FF44032CDE9130102A808910A92CA
:1048D0001591FCF7B3FE002804BF2FB0F0BDFCF724
:1048E0009FF800004EF68850CEF2000001684FF4A9
:1048F000E02241F4700101604FF0B04001684FF6D2
:10490000FB6341F0010101609421C5F6000141F80B
:104910008C2C0268CFF6F6231A4002600A6822F057
:1049200005020A604A6822F001024A6041F2000270
:10493000C2F2042241F8882C41F8842C026822F447
:1049400080220260002041F87C0C704780B5FEF7A1
:1049500013FF00F0B9FCFEF705FC80BD80B5FEF743
:1049600035FAFEF739FA80BD80B540F28040C2F2D8
:104970000000FDF72BFD80BDB0B542F6004E036888
:10498000C4F2010E704502D0B0F1804F03D14A68E5
:1049900023F07003134344F2FF32C4F2010244F6E1
:1049A000000C9042C4F2010C05DCB0F1804F0AD03B
:1049B000704508D00BE0604505D044F20042C4F2D7
:1049C0000102904203D1CA6823F4407313434C6937
:1049D00023F080020B688D68224370450260C56237
:1049E000836218BF604504D10969016301214161F7
:1049F000B0BD44F20042C4F201029042F6D1F3E7A6
:104A0000D0F808C011432CF47F4C41EA032141EA5D
:104A10000C0181607047000082684FF68873CFF602
:104A2000CF731A40114341F00701816070470000C5
:104A3000D0F820C0036A23F001030362836923F0E6
:104A4000F00343EA02122CF00A0319438261016267
:104A500070470000036A23F0100303628369D0F8F3
:104A600020C023F4704343EA02322CF0A00343EA4F
:104A70000111826101627047B0B540F2C015C2F207
:104A8000030504462846FEF729FF40F20000C2F263
:104A900003004068D4E9021240F64823C2F203033F
:104AA00080E82A00C260FDF743FE40F20820D4E906
:104AB0000012C2F20000016040F20421C2F20001C3
:104AC00000200A60B0BD000080B540F20000C2F2D4
:104AD00003004168012209680A724068FDF74EFE32
:104AE000002080BD80B5FDF74FFE80BD80B540F24F
:104AF000000040F23411C2F20300C2F2030101606F
:104B000040F25411C2F20301416040F26411C2F25A
:104B10000301816040F27011C2F20301016240F2B0
:104B20007811C2F20301416240F28011C2F2030126
:104B3000C16040F28811C2F20301016140F2A41188
:104B4000C2F20301416140F2A811C2F20301816186
:104B500040F2B411C2F20301C161FDF721FE80BD34
:104B600080B5014640F22420C2F20000FEF7C8FEE4
:104B700044F24970C0F60000FDF72EFE80BD000033
:104B800070B540F2D016C2F2030604463046FEF776
:104B9000A5FE40F22420C2F20000FEF79FFE40F284
:104BA0000000C2F20300006940F24C21C2F2000191
:104BB000251D08602ECDC0E9022322680661C0E9E8
:104BC00000216169C0E9055170BD0000B0B540F237
:104BD000C815C2F2030504462846FEF77FFE40F2E0
:104BE0000000C2F20300C068A168C0E90015FDF72B
:104BF0006DFE40F23420D4E90012C2F200000160E0
:104C000040F23821C2F2000100200A60B0BD00006D
:104C100080B540F20000C2F20300C16810220968AA
:104C20000A72C068FDF758FE002080BD7047000082
:104C300010B540F2D814C2F203042046FEF74EFE2F
:104C400040F20000C2F2030040690460FDF770FE0C
:104C500010BD00007047000080B5002001F06AFA26
:104C600080BD000010B50146407A00F0FE000E281D
:104C700009D140F21C20C2F20000FEF741FE0020E4
:104C800001F086F810BD40F2B804C2F200042046DC
:104C9000FEF736FE204601F0FFF810BD10B584B0D7
:104CA000044640F21C20C2F20000FEF717FE40F25C
:104CB000C400C2F20000046040F2B800C2F200007A
:104CC000FEF70CFE40F25431C2F20001096840F2D6
:104CD000C000C2F200000122027039B144F6654002
:104CE000C0F60000009068460294884704B010BDEA
:104CF000B0B584B0044640F2F800C2F2000004608F
:104D000040F2EC00C2F20000FEF7E8FD01200125B0
:104D1000FBF7F2FD40F26050C2F20000016840F281
:104D2000F400C2F20000057061B144F65940C0F6CB
:104D30000000019044F64950C0F60000029001A81E
:104D40000394884704B0B0BD10B540F2EC04C2F241
:104D5000000401462046FEF7D3FD204601F00AFA82
:104D600010BD000080B5416E01B3016846F20C5CD5
:104D70008A688968C0F6000C490F46F2145E1CF878
:104D80000130C0F6000E1EF80110C2F34262DB00D3
:104D9000B3FBF1F31CF802101EF80220C900B1FBAE
:104DA000F2F1A0F86A30A0F8681080BD0121A0F8E7
:104DB0006A10A0F8681080BD80B5816ACA070CD15E
:104DC0008A0715D44A071ED40A0727D4CA0630D446
:104DD0008A0639D44A0657D541E00268D0F82CC07B
:104DE000536823F4003343EA0C0353608A07E9D580
:104DF0000268D0F830C0536823F4803343EA0C03D0
:104E000053604A07E0D50268D0F834C0536823F4F1
:104E1000802343EA0C0353600A07D7D50268D0F811
:104E200038C0536823F4004343EA0C035360CA06B6
:104E3000CED50268D0F83CC0936823F4805343EA8F
:104E40000C0393608A06C5D50268D0F840C0936809
:104E500023F4005343EA0C0393604A0614D5026816
:104E6000D0F844C05368BCF5801F23F4801343EA94
:104E70000C03536008D1D2F804C0D0F848E02CF4F9
:104E8000C00343EA0E035360090658BF80BD0168A2
:104E9000C06C4A6822F400221043486080BD0000C4
:104EA000B0B582B004460020C4F88C00FCF718FAB4
:104EB00021680546096809070BD56FF07E4C20462E
:104EC0004FF4001100222B46CDF800C000F052F93B
:104ED00078B92068006840070ED56FF07E4C2046F8
:104EE0004FF4800100222B46CDF800C000F042F9BB
:104EF00010B1032002B0B0BD2020C4F88400C4F873
:104F000088000020E06684F8800002B0B0BD000098
:104F1000F0B581B004462269D4E902130068114358
:104F20006269E76911433943026846F6F317CCF624
:104F3000FF773A4011430160416848F2000521F4CF
:104F4000405119434160C4F20005A169A8421CBF49
:104F5000226A114382684FF2FF43C1F2FF131A40E5
:104F600011438160C16A626A21F00F011143A842B6
:104F7000C1620BD043F60001C4F2010188420FD197
:104F8000FEF702FA04280BD276A106E0FEF7DCF960
:104F90004FEAB020042803D26EA151F8201000E09F
:104FA00010212068A84219D0E0690139B0F5004FFE
:104FB00027D1072900F2778042F200400025C0F295
:104FC000F400DFE801F004777074707070940025CD
:104FD000FCF740FD002840F06F80B2E0082924D89B
:104FE00042F200400027C0F2F400DFE801F0051EA5
:104FF000251E221E1E1E55000027FCF717FDE0B9D6
:105000004FE0072900F2798042F200400025C0F20B
:10501000F400DFE801F0047972767272728F002575
:10502000FCF718FD002870D18BE00020012720B983
:1050300037E00027FCF722FD98B3616A46F2AA32F6
:10504000C0F6000232F811206668B0FBF2F106EB00
:10505000460399424FF0010573D33303994270D848
:1050600000210023FBF7EAF8090241EA106100027F
:1050700010EB560041F1000132460023FBF7DEF849
:105080004FF6FF42A0F54071C0F20F02914257D88F
:1050900021683D46C86054E04FF4004000270028D6
:1050A000CBD13D464DE00020012528B949E000253F
:1050B000FCF7E4FC002844D0616A46F2AA32C0F64C
:1050C000000232F811106268B0FBF1F0510801EBF8
:1050D0004000B0FBF2F14FF6F070084005D0C1F38C
:1050E000420122680843D0602BE0012529E04FF4FB
:1050F000004000250028DFD123E00020012520B951
:105100001FE00025FCF7BAFCD8B1616A46F2AA326A
:10511000C0F6000232F811106268B0FBF1F000EB4B
:105120005200B0FBF2F080B2102826BF2168C860A0
:10513000012506E04FF4004000250028E5D100E0FD
:1051400001254FF001100021A06621672846616704
:1051500001B0F0BD000000000400000002000000EB
:105160000800000001000000040000000200000030
:10517000080000002DE9F04381B004460068C069D2
:105180000840401AB0FA80F04009904264D1DDF83E
:10519000208015460E46994608F1010709E000BF38
:1051A0002068C0693040801BB0FA80F04009A842F6
:1051B00052D1002FF4D0FCF793F8B8F1000F2BD0A8
:1051C000A0EB0900404527D820680168490744BF83
:1051D000C1695FEA0151E3D54FF40061016200BF8C
:1051E000206850E8000F216820F4D07041E80002E8
:1051F000002AF5D1206850E8020F216820F0010054
:1052000041E80202002AF5D12020C4F88400C4F845
:105210008800C4F88C0018E0206850E8000F21686E
:1052200020F4D07041E80002002AF5D1206850E84F
:10523000020F216820F0010041E80202002AF5D1A6
:105240002020C4F88400C4F88800002084F880007E
:10525000032001B0BDE8F083002001B0BDE8F08379
:10526000B0B5EFF31084EFF3108072B640F2442033
:10527000C2F20000006850B146F2C430C0F600002F
:10528000D0E900158847A84784F31088B0BD40F2E4
:105290003020C2F20000006850B146F2C430C0F6BF
:1052A0000000D0E902158847A84784F31088B0BDF4
:1052B00046F2C430C0F60000D0E904158847A8477C
:1052C00084F31088B0BD000040F24420C2F2000018
:1052D0000021016040F23020C2F2000001607047FE
:1052E000EFF31082EFF3108372B640F23023C2F274
:1052F000000321B1012906D11968084302E01968A9
:1053000021EA0000186082F31088704780B54FF0E2
:10531000FF3000F03BF880BD80B5FFF7A1FF80BDF6
:10532000EFF31081EFF3108272B640F21002C2F276
:105330000002136823EA0000106081F310887047B0
:105340007047000070470000B0B51446EFF31085B9
:10535000EFF3108172B6FFF7B5F840F25021C2F2B8
:10536000000141F8204085F31088B0BDEFF31081B3
:10537000EFF3108272B640F21002C2F2000213681C
:105380001843106081F31088704700002DE9F04F3A
:1053900081B040F20801C2F200010A6840F2E0293F
:1053A000104040F2100600920860C2F20009C2F2FA
:1053B0000006D9F80010326840F20C271140014273
:1053C000C2F2000761D040F2D024C2F20004A4F17E
:1053D0000C0A00BF40F2102140F21422C2F2000178
:1053E000C2F20002096812680A424ED1D04600BFDC
:1053F000D8F80C1032680140114208F10808F7D0C3
:105400003068D8F808200840104204BF4FF0FF3140
:10541000C8F80810D8F808B000EA0B00FFF752F8F7
:105420000121386001FA00F02BEA0000C8F80800FA
:10543000EFF31080EFF3108272B63A68D9F800509B
:1054400001FA02F3DA4325EA0303C9F8003000BF8A
:1054500054F83130134044F8313001394B1CF7D146
:1054600080F31088386840F25021C2F2000151F8F0
:105470002000804740F20800D9F800103268C2F2DC
:105480000000006811400142A4D14FF0FF303860A5
:10549000FFF758FFEFF31084EFF3108072B640F27D
:1054A0000802D9F800003168C2F200021268084010
:1054B00010420DD140F2102040F21421C2F200003F
:1054C000C2F2000100680968014208BFFFF724FF2B
:1054D00084F31088FFF734FF40F208000099C2F20D
:1054E0000000016001B0BDE8F08F0000EFF3108113
:1054F000EFF3108272B640F21022C2F2000213687B
:105500001843106081F310887047000040F2E02CCF
:10551000EFF31082EFF3108372B6C2F2000CDCF8E6
:1055200000300343CCF8003040F2D02CC2F2000C23
:105530005CF8313018434CF8310082F31088704722
:105540002DE9F04381B040F20C2840F214250146C9
:10555000C2F20008C2F2000540F21026D8F800702E
:10556000D5F800902960C2F200063268B7F1FF3426
:105570004FF0010018BF00FA07F40A4207D100BF3C
:105580002046FFF7C3FE306829680142F8D0C8F80A
:105590000070EFF31080EFF3108172B62968326863
:1055A00022EA0101316080F31088C5F8009001B053
:1055B000BDE8F083B0B540F2001CC2F2000C9CF8CC
:1055C000002040F2041E8242C2F2000E0ED19CF86E
:1055D000002040F29C13C2F200031A7000EB40025C
:1055E0000EEBC202527D8CF8002014E000EB40026A
:1055F0000EEBC20212F8144F5378557804EB4404B2
:105600000EEBC404062B657505D0127803EB43033B
:105610000EEBC3031A7500EB40000EEBC000012235
:10562000027300299CF8000008BF062800D0B0BD16
:1056300040F29810C2F200004FF0FF310160B0BD9F
:10564000FEE7000070470000002848BF704700F0E8
:105650001F01012202FA01F14EF280224009CEF22E
:10566000000242F820107047002848BF704700F041
:105670001F01012202FA01F14EF280124009CEF21E
:10568000000242F82010BFF34F8FBFF36F8F7047B7
:10569000002848BF704700F01F01012202FA01F103
:1056A0004EF200124009CEF2000242F8201070477C
:1056B0004EF60C50CEF200000068C0F30220704796
:1056C000002848BF704700F01F01012202FA01F1D3
:1056D0004EF200224009CEF2000242F8201070473C
:1056E0004EF6145300F00F02CEF2000309011A44E3
:1056F00000F16043B0F1FF3FC8BF03F56442117091
:10570000704700004EF60C51CEF200010A684FF6C9
:10571000FF031A4060F30A2242F0806040F0FD70FF
:105720000860704710B588B0002002AC8DF8070003
:10573000204600211822FEF79BFB3F20C0F292007A
:1057400002900DF1070006900120079020460021ED
:1057500000F0D4FB9DF80710002848BFFF21084641
:1057600008B010BD2DE9F043C9B001AC15460E4696
:10577000074620460021072298464FF00709FEF70A
:1057800077FB8DF80F5043AD2846002118228DF885
:105790000D708DF80E60FEF76BFB3F20C0F28A00A3
:1057A00043900DF10D004590032046A981E81102B8
:1057B0002846002100F0A2FB002805D49DF8040033
:1057C00030B149B0BDE8F083FF2049B0BDE8F083B7
:1057D000BDF805105198509AA8F80010BDF80710B0
:1057E000BDF8093011800380002049B0BDE8F08386
:1057F000F0B5C7B0DDE94E4EDDF840C1DDE94C65DE
:105800008DF80B4041AC00278DF805008DF806108F
:105810008DF807202046002118228DF804708DF89D
:1058200008308DF809608DF80A50CDF80CE08DF83D
:1058300010C0FEF71DFB3F20C0F2860041900DF125
:10584000050043900C20449001A84590012046900B
:105850002046002100F052FB9DF80410002848BFAC
:10586000FF21084647B0F0BD2DE9F04FC7B0DDE994
:1058700052C4DDE950E50DF1050909F10807DDE93C
:10588000548B4FF0000A8DF80500ADF80610ADF806
:105890000820384661462A467E198DF804A08DF806
:1058A0000A308DF80BE08DF80C50FEF7DBFA06F8A5
:1058B000014B3046414622463719FEF7D3FA569837
:1058C00026F804B07880281941AC00F10D05204677
:1058D00000211822FEF7CCFA3F20C0F2830041904D
:1058E00001A845900120469020460021CDE943952E
:1058F00000F004FB9DF80410002848BFFF21084673
:1059000047B0BDE8F08F000010B5C6B0002140AC34
:105910008DF800108DF80100204600211822FEF7B6
:10592000A7FA3F20C0F2850040900DF1010042909F
:10593000012069464390CDE944102046002100F043
:10594000DDFA9DF80010002848BFFF21084646B048
:1059500010BD000010B588B0002002AC8DF8070023
:10596000204600211822FEF783FA3F20C0F2810072
:1059700002900DF1070006900120079020460021BB
:1059800000F0BCFA9DF80710002848BFFF21084628
:1059900008B010BD70B5C6B0044600200DF1010579
:1059A0008DF80000681C22468DF80140FEF75AFA77
:1059B000661C40AC204600211822FEF759FA3F2011
:1059C000C0F28E00409068464490012045902046E9
:1059D0000021CDE9425600F091FA9DF80010002810
:1059E00048BFFF21084646B070BD00002DE9F04FCA
:1059F000C7B00446881EB0FA80F040096D46934651
:105A00000F460601012928464FF000014FF003021E
:105A10009A4608BF02264FF000094FF00308FEF730
:105A200027FA012FADF804408DF8067003D0022F3D
:105A30001BD1102700E0022701A8529CDDE95098F5
:105A4000033059463A460644FEF70CFA539886F856
:105A500002907071549886F8038007F10A084FF09D
:105A60000109A6F800A03471B071B9F1000F1BD084
:105A700041AC204600211822FEF7FAF93F20C0F27F
:105A80000410419001A8CDE9430803204690204628
:105A90000021459500F032FA002809D49DF8000055
:105AA00050B147B0BDE8F08F472047B0BDE8F08F58
:105AB000FF2047B0BDE8F08F5598BDF80110018078
:105AC000002047B0BDE8F08F2DE9F04FC7B0044685
:105AD0000238B0FA80F04009E84693460F460501C7
